:020000040800F2
:1000000010B500202D0200088D190008B517000852
:10001000891900082F170008B91C0008000000000B
:10002000000000000000000000000000611A00084D
:1000300033170008000000008F190008450200086F
:10004000470200084702000847020008470200086C
:10005000470200084702000847020008470200085C
:10006000470200084702000847020008470200084C
:10007000470200084702000847020008470200083C
:10008000470200084702000847020008470200082C
:10009000B11C000847020008470200084702000898
:1000A000470200084702000847020008470200080C
:1000B0001D1C00084702000847020008470200080C
:1000C00047020008470200084702000847020008EC
:1000D00047020008470200086D1C0008470200089C
:1000E00047020008470200084702000847020008CC
:1000F00047020008470200084702000847020008BC
:1001000047020008470200084702000847020008AB
:10011000470200084702000847020008470200089B
:10012000470200084702000847020008470200088B
:1001300000F002F800F06AF80AA090E8000C82448F
:100140008344AAF10107DA4501D100F05FF8AFF26C
:10015000090EBAE80F0013F0010F18BFFB1A43F0A5
:100160000103184784470300A44703000A444FF0E3
:10017000000C10F8013B13F0070408BF10F8014B06
:100180001D1108BF10F8015B641E05D010F8016B4B
:10019000641E01F8016BF9D113F0080F1EBF10F8AF
:1001A000014BAD1C0C1B09D16D1E58BF01F801CBD2
:1001B000FAD505E014F8016B01F8016B6D1EF9D555
:1001C0009142D6D37047000000230024002500266A
:1001D000103A28BF78C1FBD8520728BF30C148BFAA
:1001E0000B60704766292BF04084732900F09D85D1
:1001F000002070471FB500F09DFD04000020002185
:100200002AF004FFE0601FBD10B510BD00F092FEA3
:100210001146FFF7EFFF23F0E1F900F0B0FE03B461
:10022000FFF7F2FF03BC00F0B3FE0000094880476F
:1002300009480047FEE7FEE7FEE7FEE7FEE7FEE7C8
:10024000FEE7FEE7FEE7FEE704480549054A064BE0
:1002500070470000491B000831010008107500209C
:1002600010B50020109500201095002053EA020CD4
:1002700000F069802DE9F04B4FF00006002B1FBF06
:10028000B3FA83F503FA05F424FA05F65E4012BFCB
:100290001643B2FA82F502FA05F4C5F120051EBF35
:1002A00022FA05FC44EA0C04203556EA044C4FEAD5
:1002B000144418BF641C4FF000084FF0000990422E
:1002C00071EB030C39D3002919BFB1FA81F701FA98
:1002D00007F6B0FA80F700FA07F6C7F120071EBF4D
:1002E00020FA07FC46EA0C062037B6FBF4FCA7EB25
:1002F0000507103F07F01F0BCBF120060CFA0BFB94
:100300002CFA06F644BFB3460026202FA4BF5E4653
:100310004FF0000B5BEA060C08BF4FF0010B19EB26
:100320000B09ABFB027C48EB0608C01B06FB02CCAA
:100330000BFB03CC71EB0C01C1E70B4602464146B7
:100340004846BDE8F08B13B54FF000004FF00001B8
:10035000AFF30080BDE81C40704700000FB47CB5CF
:100360000C0009AA009001D02044401E084B7B4499
:1003700069460190089800F0A6FC05461CB10020D3
:10038000694600F0B3FC28467CBC5DF814FB000015
:100390008509000070B5044685690068C10601D56D
:1003A000302600E02026C00707D070BDD4E9012127
:1003B00030469047206A401C20626D1EF6D570BD05
:1003C00070B5044685690078C00707D170BDD4E9CF
:1003D000012120209047206A401C20626D1EF6D526
:1003E00070BD70B50C460546012A05D028788006F8
:1003F00000D5EA69002302E0012305E05B1C93427B
:1004000002D2E05C0028F9D1A869E618C01AA861F8
:10041000286A184428622846FFF7BCFF04E0D5E9A3
:10042000012114F8010B9047B442F8D32846FFF796
:10043000C7FF70BD2DE9F05F894604464FF0000A02
:10044000DFF874B1FB44C0F820A02046E16888477B
:10045000002874D0252806D0D4E901219047206ACD
:10046000401C2062F1E700265F462046E16888478D
:100470002028054607DB312D05D2781910F8200C0D
:1004800008B10643F1E7B00701D526F00406C4F829
:100490001CA00027C4F818A02A2D09D0284601F076
:1004A0003FFC38B304EB8708303DC8F8185019E01A
:1004B00059F8041B204604EB87029161E1688847E4
:1004C000012F054618D1E069002820DA26F0200621
:1004D0001DE0D8F8180000EB800005EB4000303834
:1004E000C8F818002046E1688847054601F018FC66
:1004F0000028EED1012F0AD02E2D08D12046E16828
:1005000088477F1C0546022F46F02006C4DBA06901
:10051000002803DA404246F00106A061F00701D04E
:1005200026F010066C2D0BD0682D09D04C2D39D03B
:100530006A2D35D0742D35D07A2D33D016E038E0C1
:10054000E1682F4620468847B842054609D16C2FFE
:1005500026D04FF48060E168064320468847054670
:1005600004E06C2F1AD04FF4807006430DB3A5F150
:100570004100192802D8203546F400664A4629462B
:10058000204626604E46FFF72DFE80B101280BD095
:10059000F61D26F0070000F1080956E74020E4E7C1
:1005A0008020D8E70020D6E706F104094DE7284669
:1005B00052E7206ABDE8F09F5C40030040EA010377
:1005C000024630B59B0710D14FF0013400E008C25D
:1005D00008C91D1B9D4315EAC41FF8D013F0FF0185
:1005E00002F8011B0DD01B0AF8E711F8013B002BA4
:1005F00002F8013B05D011F8013B002B02F8013B4A
:10060000F3D130BD10B5431C02E010F8011B71B1ED
:100610008107FAD14FF0013202C88C1A8C4314EAD8
:10062000C211F9D0C01A0A0603D0C01E10BDC01AEC
:1006300010BD0A0401D0801E10BD0902FCD0401E6E
:1006400010BD032A40F2308010F0030C00F015803A
:1006500011F8013BBCF1020F624498BF11F801CBC5
:1006600000F8013B38BF11F8013BA2F1040298BF2A
:1006700000F801CB38BF00F8013B11F0030300F094
:100680002580083AC0F0088051F8043B083A51F838
:1006900004CBA0E80810F5E7121D5CBF51F8043B3D
:1006A00040F8043BAFF30080D20724BF11F8013BB0
:1006B00011F801CB48BF11F8012B24BF00F8013B12
:1006C00000F801CB48BF00F8012B704710B5203A65
:1006D000C0F00B80B1E81850203AA0E81850B1E8FB
:1006E0001850A0E81850BFF4F5AF5FEA027C24BFB1
:1006F000B1E81850A0E8185044BF18C918C0BDE8A8
:1007000010405FEA827C24BF51F8043B40F8043B70
:1007100008BF7047D20728BF31F8023B48BF11F825
:10072000012B28BF20F8023B48BF00F8012B70477F
:100730004FF000020429C0F0128010F0030C00F00A
:100740001B80CCF1040CBCF1020F18BF00F8012B88
:10075000A8BF20F8022BA1EB0C0100F00DB85FEA56
:10076000C17C24BF00F8012B00F8012B48BF00F822
:10077000012B70474FF0000200B513469446964691
:10078000203922BFA0E80C50A0E80C50B1F12001A4
:10079000BFF4F7AF090728BFA0E80C5048BF0CC052
:1007A0005DF804EB890028BF40F8042B08BF7047B0
:1007B00048BF20F8022B11F0804F18BF00F8012B22
:1007C000704710B5044610F0030F08BF11F0030F77
:1007D00040F015804FF0013E121FC0F20E8051F81C
:1007E000043BA3EB0E0C2CEA030C1CEACE1C08BF46
:1007F00040F8043BF0D0A1F1040102F10402521EC2
:1008000008DB11F8013B002B00F8013BF7D1114642
:10081000FFF78EFF204610BD4FF0013C50F8042B2F
:1008200051F8043B9A4221D1A2EB0C03934313EA03
:10083000CC1317D150F8042B51F8043B9A4215D130
:10084000A2EB0C03934313EACC130BD150F8042B07
:1008500051F8043B9A4209D1A2EB0C03934313EAEB
:10086000CC13DBD04FF00000704700BFD01A01BAA4
:10087000B1FA81F101F0180122FA01F0CB40C1F187
:100880002001DBB2C0B2C01A2CFA01F3D11A914395
:1008900011EAC311E6D1704770477047704770473F
:1008A0002DE9FF4F0C461E464FF0FF378BB0D2E9C3
:1008B0000001DDF860800A908A46C1F30A5505B947
:1008C0003D46002108464FF00000BAF1000F00F449
:1008D000400005DA00EB80004FF4400101EA5000CF
:1008E0004FEA9059B9F1010F00DDB9460A9850EA74
:1008F0004A000ED044F61050A5F2FF3545432F14A0
:10090000B8F1000F1ED07542291E1EDDC9F100028C
:100910001CE0B8F1010F4FF0000001D0302103E0DE
:10092000F24305E02154401CB042FBDB304600227C
:10093000002121540B99C1F80880C1E900200FB0B3
:10094000BDE8F08FBD1B6D1CDEE74A4600DA694248
:1009500006A800F079FA06AB93E8070003AB83E83A
:10096000070050460A9900F01AFB8DE80700A0F531
:1009700000501F3800900398002D0ADD42F21F013D
:100980004A460844002303A90390684600F083FD0B
:1009900009E0A0F500504A461F38002303A9039040
:1009A000684600F08DFD8DE807000004000C03D0C0
:1009B0004FF0FF30410800E01046B8F1000F03D0BF
:1009C0000022009215461EE0751E05D400F0B6F90F
:1009D000303262556D1EF9D5B3460122084302D06C
:1009E00000227F1C04E02078302801D100227F1EE5
:1009F000002A099784D01DE0112D07DA00F09EF936
:100A0000303262556D1C50EA0102F5D1084302D024
:100A10000098C8B10EE00021681E05E0235C625C0E
:100A200063542254401E491C8142F7DBAB46A81B8D
:100A3000401E0990002004F80B000B98099AC0F89A
:100A40000880C0E9002B7AE711264FF0000857E72D
:100A50002DE9F04F88460446D21D22F0070191B0DF
:100A6000D1E90001CDE90A0101F028F902460B980D
:100A7000C00F01D02D2007E02068810701D52B2071
:100A800002E0202101EAC000032A099001D0072AD0
:100A900005DB03464146204600F096F90BE120783D
:100AA000800601D5E06900E00620B8F1650F8146B7
:100AB00006D0B8F1660F18D0B8F1670F70D131E0E9
:100AC0000020B9F1110F009001DB112301E009F1C1
:100AD00001030AAA01A90CA8FFF7E2FEDDE90C70E8
:100AE000002609F10105834647E001204B460090AE
:100AF0004FF000470AAA01A90CA8FFF7D1FEDDE9D3
:100B00000DB00C995D46002610B909F101000D18D1
:100B1000B9EB050003D4C0F1FF3609F10105A5EBDF
:100B200009002BE0B9F1010F01DA4FF001090020B3
:100B3000B9F1110F0090484601DD112300E0034692
:100B40000AAA01A90CA8FFF7ABFEDDE90C704D461F
:100B500000268346207800070AD4AB4500DA5D46BC
:100B600001A8012D04DD411911F8011C302907D01D
:100B70004F4502DA17F1040F04DA012082460FE034
:100B80006D1EEEE7002F02DCED1B3E4403E0781CF7
:100B9000A84200DD7D1CB81B00F1010A4FF00047A0
:100BA0002078000703D4AA4501DB4FF0FF3A00216B
:100BB000B7F1004F0DF143088DF8431024D0022007
:100BC0002B23002F01DA7F422D230A21021EA0F1E0
:100BD000010000DC5FB197FBF1FC97FBF1F201FB38
:100BE0001C7C17460CF1300C08F801CDEEE7A8F19B
:100BF000010003702188090501D5452100E0652128
:100C0000A0F1010800F8011C09980FA9A1EB080741
:100C1000FF1D00B10120411901EBEA70A1693844C0
:100C2000081A401EA0612078C00602D42046FFF7B3
:100C3000B1FB099828B1D4E901219047206A401CF2
:100C400020622078C00622D52046FFF7A3FB1EE0D5
:100C5000002E04DBB34502DD01A8805D00E03020FA
:100C6000D4E901219047206A401C2062761CAAF139
:100C700001005FEA000A0AD100F05CF8C068016870
:100C8000405CD4E901219047206A401C2062281E64
:100C9000A5F10105DCDC07E0D4E9012118F8010B1E
:100CA0009047206A401C2062381EA7F10107F3DC40
:100CB0002046FFF785FB032011B041E601694A1C7D
:100CC00002610878704700B58FB0CDE9013100218D
:100CD000059105497944CDE9031011466846FFF7AF
:100CE000A9FB0FB000BD0000E5FFFFFF0A6802F896
:100CF000010B0A607047D1E900239A4202D2531CCB
:100D00000B601070704710B5436913B1AFF30080EA
:100D100001E0FFF766FB012010BD127800F124010D
:100D20000A7000224A700122EDE711684FF0FF328D
:100D3000E9E7000000487047CC74002030B5B0F1FE
:100D40000A024FEA900E71F100034EEA817EB0EB89
:100D50000E0061EB91014FEA101E4EEA017E10EB8E
:100D60000E0041EB11114FEA102E4EEA016E10EB0E
:100D70000E0041EB11214FEA104E4EEA014E10EBEE
:100D80000E0041EB1141401841F100014FEAD00043
:100D900040EA41704FEAD10110EB80054FEA81042F
:100DA00044EA907444EB01046D1944EB0404521BB3
:100DB000A3414FF0000348BF0A3200D530BD401CAC
:100DC00041F1000130BD00002DE9F0411F4604460D
:100DD00003260168072A01F4006004DB08B116A5A8
:100DE00005E016A503E008B115A500E015A521F062
:100DF00010002060A069C01EA0610FB1401EA0615C
:100E00002046FFF7C7FA4FB1D4E901213846904791
:100E1000206A401C2062C01C206206E0206AFAE7BB
:100E2000D4E9012115F8010B9047761EF8D220462F
:100E3000FFF7C6FABDE8F0814E414E006E616E00CC
:100E4000494E4600696E66002DE9F0478146164618
:100E50008AB0354878440DC88DE80D003248784492
:100E6000801C03AC0DC884E80D0041F69B3008449B
:100E7000372190FBF1F290FBF1F5A5F1800501FB24
:100E800012041B3C02D56442012000E00020DFF880
:100E900098A080460027FA44AAF1BE0A0EE0E007B7
:100EA0000AD03246684607EB470101230AEB81016D
:100EB00000F006FB8DE8070064107F1C002CEED1CB
:100EC000194F7F44AE3F19E0E80715D007EB041037
:100ED0000DF1180A90E80E008AE80E00C068F04292
:100EE00001D1981908903246012306A903A800F001
:100EF000E7FA03AB83E807006D10641C002DE3D113
:100F00004FF0010332466946B8F1000F03A802D042
:100F100000F0C1FA01E000F0D3FAC9E90001C9F814
:100F200008200AB0BDE8F087DC36030000487047AF
:100F3000AC7400207546FFF7F9FFAE460500694620
:100F4000534620F00700854618B020B5FFF77CF91E
:100F5000BDE820404FF000064FF000074FF00008BA
:100F60004FF0000B21F00701AC46ACE8C009ACE83B
:100F7000C009ACE8C009ACE8C0098D46704710B59F
:100F80000446AFF300802046BDE81040FFF747B9A4
:100F900001491820ABBEFEE72600020070475FEA59
:100FA000400C08BF91F0000F4FEA8C234FEAC1229A
:100FB00043EA51514FEA1C5018BF00F5F0404FEA88
:100FC000300018BF41F000415FEA6C5C00F02980FE
:100FD000BCF1FF3F08BF40F080407047130C06BFD4
:100FE00012044FF0100C4FF0000C130E04BF12024D
:100FF0000CF1080C130F04BF12010CF1040C930F39
:1010000004BF92000CF1020CD30F04BF52000CF18C
:10101000010C11464FF00002A0F11F00A0EB0C00E4
:10102000704711F0004F08BF704731F000413FF4A6
:10103000D5AF0B0C06BF09044FF0100C4FF0000C9D
:101040000B0E04BF09020CF1080C0B0F04BF0901C1
:101050000CF1040C8B0F04BF89000CF1020CCB0FB8
:1010600004BF49000CF1010CCCF12003A0EB0C00F3
:1010700022FA03F302FA0CF241EA030100F1010043
:10108000704720F07F4C80EA030023F07F47ACEBF1
:10109000070303F57C5300F0004003F1FF032DE943
:1010A00080494FEA154B09B44FEA144325EA0B4E29
:1010B00024EA03480FF2042606EB132749083E787A
:1010C0005FEA320203FB0667C7F5000707FB06F677
:1010D0004FEA54374FEAD64606F1020607FB066C84
:1010E000CCF1005C4FEA1C472CEA074C07FB06F4E6
:1010F0000CFB06F504EB15464FEA961634BF0020AC
:101100004FF000404FEAD13706FB07FC4FEA1C4C7A
:101110000CFB0BF7D21B03FB0CF761EB07010CFB7D
:101120000EF7B0EB074072EB17420CFB08F734BF29
:10113000A2EB0742B2EB074261EB17414FEA0C44C6
:101140004FEA910706FB07FC4FEA1C4C0CFB0BF720
:10115000B0EBC74072EB573203FB0CF734BFA2EB86
:10116000C742B2EBC74261EB57310CFB0EF7B0EB55
:10117000C70072EB57720CFB08F734BFA2EBC70233
:10118000B2EBC70261EB5771039F4FEA816141EAFD
:10119000921104EBCC044FEAD1374FEA826206FB8E
:1011A00007FC42EA90124FEA80604FEA1C4C0CFBAD
:1011B0000BF7D21B03FB0CF761EB07010CFB0EF7DF
:1011C000B0EB074072EB17420CFB08F734BFA2EB01
:1011D0000742B2EB074261EB17414FEA8C554FEAE9
:1011E000910704EB9C2406FB07FC4FEA1C4C0CFB0C
:1011F0000BF7B0EBC74072EB573203FB0CF734BF71
:10120000A2EBC742B2EBC74261EB57310CFB0EF7C2
:10121000B0EBC70072EB57720CFB08F734BFA2EBC0
:10122000C702B2EBC70261EB577115EB4C254FEAD1
:10123000816141EA92114FEA82624FEAD13742EA74
:10124000901206FB07FC44F100044FEA80604FEA6D
:101250001C4C0CFB0BF7D21B03FB0CF761EB0701DB
:101260000CFB0EF7B0EB074072EB17420CFB08F7D4
:1012700034BFA2EB0742B2EB074261EB174115EB1B
:101280001C154FEA813141EA92414FEA823242EA2B
:1012900090424FEA80304FEA0C7644F1000448EA6D
:1012A00003434EEA0B484FF0000EB2EB080C71EB13
:1012B000030724BF624639464EEB0E0E4FF0000B7B
:1012C0000018524149414BEB0B0BB2EB080C71EB90
:1012D00003077BF1000B24BF624639464EEB0E0E2E
:1012E0004FF0000B0018524149414BEB0B0BB2EB96
:1012F000080C71EB03077BF1000B24BF62463946F3
:101300004EEB0E0E51EA020718BF46F0010616EB2F
:101310000E7655F1000254F1000103D5BDE88901B4
:10132000BDE80088BDE88901BDE80048B619524112
:1013300041EB0101A3F10103704780807F7E7D7C3A
:101340007B7A7978777676757473727171706F6E57
:101350006E6D6C6C6B6A6A69686867666665646402
:10136000636362616160605F5F5E5E5D5D5C5C5B8C
:101370005B5A5A59595858575756565555555454FB
:10138000535352525251515050504F4F4F4E4E4D59
:101390004D4D4C4C4C4B4B4B4A4A4A4949494848A5
:1013A00048474747474646464545454444444443E5
:1013B00043434342424242414141002B9C4630D488
:1013C00077002BD01CB54FEA370703B44FF010005D
:1013D0004FF01001BAF1000F06D0BCF1000FDCBFD6
:1013E00040F0080040F008014FF000000FBCBDE8DD
:1013F00010400BF1010BBBF1010F08BF5FEA1707AB
:1014000022BF12F1010211F101014FF0004143F13D
:10141000000300F0004043EA00007047F9D357088A
:10142000D0E746EA064613F1400F4FEA16461FDDA5
:1014300013F1200FDFBF16430A46002120335B4221
:10144000BED0C3F1200746EA064602FA07F74FEA84
:10145000164646EA0706C3F1200722FA03F201FA0C
:1014600007F721FA03F14FF0000342EA0702A7E76A
:1014700046EA020646EA06464FEA164646EA0106EC
:10148000BCBF46EA0646360C4FF000034FF00002A0
:101490004FF0000194E72DE9804C9A46934670B4D2
:1014A00091E8380007C831EA400C48BF34EA430CE1
:1014B00003D5FFF7E6FDFFF780FFF0BCBDE8008C29
:1014C0002DE9804C9A46934670B491E8380007C8DD
:1014D00010F0804F08BF13F0804F03D100F005F8E3
:1014E000FFF76BFFF0BCBDE8008C20F07F4780EA7F
:1014F000030023F07F4C07EB0C03A3F57C5300F0B3
:101500000040A3F1FE0392F0000F00F0B38095F0CD
:10151000000F00F077802DE901494FEA11404FEAB2
:10152000144621EA004800FB06FC24EA064708FBB3
:1015300006F607FB08F800FB07F718EB06484CEB2C
:10154000164C4FEA124B18EB07484FEA15464CEB86
:10155000174022EA0B4E0BFB06FC25EA06470EFB62
:1015600006F607FB0EFE0BFB07F71EEB064E4CEBD9
:10157000164C4FF000061EEB074E4CEB174B18EBCA
:101580000B0840F1000018EB0E0B58EB000840F17F
:1015900000008F1A4FF000013CBFC943661B14BF07
:1015A000B5EB040C00213CBFC943F61B4FEA1744BE
:1015B0004EEA8E0E27EA04454FEA1C4704FB0762F9
:1015C0002CEA074C05FB07F70CFB05F604FB0CFCAB
:1015D00016EB074642EB174216EB0C4642EB1C4259
:1015E0001BEB060658EB0202414146EA9E0601D576
:1015F000BDE80189B619524141EB0101A3F1010394
:10160000BDE801894FEA14454FEA114724EA05462F
:1016100021EA074C05FB07F406FB07F70CFB06F174
:1016200005FB0CFC11EB074144EB17444FEA124752
:1016300011EB0C4144EB1C4422EA074C05FB07F27A
:1016400006FB07F70CFB06F605FB0CFC16EB074642
:1016500042EB174216EB0C4642EB1C456A1854F15C
:10166000000148BF7047B619524141EB0101A3F197
:101670000103704795F0000F37D04FEA11424FEA4F
:10168000144721EA024624EA074C02FB07F106FB55
:1016900007F70CFB06F402FB0CFC14EB074441EBD0
:1016A00017414FEA154714EB0C4441EB1C4125EA66
:1016B000074C02FB07F506FB07F70CFB06F602FBDF
:1016C0000CFC16EB074645EB174516EB0C4645EBB5
:1016D0001C42121951F1000148BF7047B61952411E
:1016E00041EB0101A3F1010370474FEA14454FEAB2
:1016F000114724EA054621EA074C05FB07F106FBE2
:1017000007F70CFB06F24FF0000605FB0CFC12EB92
:10171000074241EB174112EB0C4251EB1C4148BF11
:101720007047921841EB0101A3F10103704700BF1C
:10173000FEE7704770B50446802000F064F8064666
:101740002AF03EF8054602492AF04EF8206070BDA6
:101750000000A03F70B50446802000F02DF806463A
:101760002AF02EF8054602492AF03EF8206070BDA6
:101770000000204070B50446802000F02AF806469C
:101780002AF006F8054602492AF02EF8206070BDBE
:10179000CDCCCC3D70B50446802000F027F806463D
:1017A00029F0F6FF054602492AF01EF8206070BDB8
:1017B0000000204000BFFEE770B50446002503216D
:1017C000204600F0A6F8204600F066F805B2A8B260
:1017D00070BD70B5044600250421204600F099F83C
:1017E000204600F059F805B2284670BD70B5044691
:1017F00000250121204600F08CF8204600F04CF82E
:1018000005B2284670BD70B5054600240221284661
:1018100000F07FF8284600F03FF80446204670BDEF
:1018200070B504460025FF21204600F072F82046DE
:1018300000F032F805460148456170BD3C040020C7
:1018400070B504460025FE21204600F062F82046CF
:1018500000F022F805460148856170BD3C04002077
:1018600010B50DF0C9FC4FF400420021802000F0BB
:101870002EF844F227320021802000F028F84FF49F
:1018800020620521802000F022F88020FFF7C8FFA9
:101890008020FFF7D5FF10BD70B5054600240DF080
:1018A00063FD691CC8B20DF02DFD0DF09DFD0120FA
:1018B0000DF0FAFC04464FF6FF7000EA0424002005
:1018C0000DF0F2FC04430DF06DFD204670BD2DE9D6
:1018D000F04106460D46144600270DF045FD304602
:1018E0000DF010FD0DF080FD28460DF00BFD0DF004
:1018F0007BFD271238460DF005FD0DF075FDE7B2B2
:1019000038460DF0FFFC0DF06FFD0DF04BFDBDE80E
:10191000F08170B505460C460DF026FD28460DF009
:10192000F1FC0DF061FD20460DF0ECFC0DF05CFDCE
:101930000DF038FD70BD000070B51148FFF7FAFEDC
:101940000F48001DFFF726FF0D480830FFF712FF74
:101950000B480C30FFF7FEFE094988684FF07E51B6
:1019600029F042FF044606490868064929F03CFF71
:101970000546214629F038FF0149086170BD000085
:101980003C0400206F12833A00BFFEE770477047A7
:1019900000F0800121B14FF400512E4A116004E0A3
:1019A0004FF400512B4A121D116000F0400121B18B
:1019B0004FF48041274A116004E04FF48041254AEA
:1019C000121D116000F0200121B14FF40041214AA5
:1019D000116004E04FF400411E4A121D116000F036
:1019E000100119B140211C4A116102E040211A4A3C
:1019F000516100F0080119B18021174A116102E01C
:101A00008021154A516100F0040121B14FF4807129
:101A1000114A116103E04FF480710F4A516100F0E7
:101A2000020121B14FF400710B4A116103E04FF440
:101A30000071094A516100F0010121B14FF4807138
:101A4000064A116004E04FF48071044A121D1160CF
:101A500070470000100C01400010014010080140C8
:101A6000704700002DE9FF430FF2BC09D9E901C816
:101A7000D9F80070D9F80C90CDE901C8CDF80C90D8
:101A800000972D4F7F68C7F3810626B1012E08D03D
:101A9000022E33D10BE0294FDFF8A4C0CCF8007040
:101AA00032E0264FDFF898C0CCF800702CE0224FCF
:101AB0007F6807F480320AB9224908E01F491E4FA7
:101AC0007F6807F40033B3F5003F00D149101A4F87
:101AD0007F68C7F38340184F7F6807F000670FB136
:101AE00040F010000F2801D3401C00E0801C01FBD7
:101AF00000F7DFF84CC0CCF8007005E00F4FDFF8BE
:101B000040C0CCF8007000BF00BF0B4F7F68C7F328
:101B100003141DF804500A4F3F68EF40DFF820C05F
:101B2000CCF80070BDE8FF8300000000000000005A
:101B300001020304060708090010024000127A009F
:101B40003801002000093D0008B53048006840F029
:101B500001002E49086000BF2C48006800F0020018
:101B60000028F9D000BF2948406840F0800027498C
:101B700048600020009002E00098401C009000980F
:101B80005028F9D32148406840F090001F49486030
:101B90000020009002E00098401C0090009850281F
:101BA000F9D300BF1948406820F003001749486086
:101BB000084600681649084014490860084640680D
:101BC0001449084011494860084600681049084017
:101BD0000E4908600846006820F480200860084626
:101BE00040680D49084009494860084600680849AE
:101BF0000840064908604FF41F00886026F028FC62
:101C000000214FF0006023F0CBF808BD0010024027
:101C1000FFFFF6FE0C00FFE8FFFF00F710B5012103
:101C2000880727F074F901281CD10121800727F0CB
:101C30006BF9012020F0CEFE012023F023F800BF35
:101C400009480069401C0849086100BF00BF0DF049
:101C50009DFA054988600DF09FFA0349C86000BFEE
:101C600023F056FB10BD00005804002010B50024DE
:101C70000C490D4827F018FE90B10B4827F05CFD89
:101C8000C4B20A480168001D4454001F0068401C8B
:101C90000649086008460068802801D300200860D3
:101CA00010BD00000503050000380140F8030020C6
:101CB00010B528F06DFD10BD00BFFEE7490050EAE9
:101CC000C12018BF04204A0D18BF40F0010040F2A7
:101CD000FF72B2EB515F08BF40F00200012808BF5D
:101CE0000520704770B50446002508E02168481CAF
:101CF00020600878303805EB850100EB410521684C
:101D0000087800F004F80028F0D1284670BD01469C
:101D1000302903DB392901DC012070470020FCE772
:101D200030380A2801D20120704700207047000097
:101D300010B54021074801F0E3FA00221E210648B1
:101D400020F056FE0549086002F09AFE0020044982
:101D5000087010BD942000204D4B00081403002093
:101D60001003002030B50346B1F90040B2F900502D
:101D7000AC4202DDB1F9004001E0B2F900401C8044
:101D8000B1F90240B2F90250AC4202DDB1F90240B1
:101D900001E0B2F902405C80B1F90440B2F90450AC
:101DA000AC4202DAB1F9044001E0B2F904409C808F
:101DB000B1F90640B2F90650AC4202DAB1F9064078
:101DC00001E0B2F90640DC800120B3F90040B3F92C
:101DD0000450AC4205DCB3F90240B3F90650AC4202
:101DE00000DD002030BDF8B504460D46164600273C
:101DF000B4F90000B5F90010884212DBB4F9020012
:101E0000B5F9021088420CDBB4F90400B5F90410EE
:101E1000884206DCB4F90600B5F90610884200DCF9
:101E200001270FB90020F8BD0EB90120FBE720887B
:101E3000ADF800006088ADF80200324669462846D9
:101E400000F0A7F808B90020EDE7A088ADF8000081
:101E50006088ADF8020032466946284600F099F8DD
:101E600008B90020DFE72088ADF80000E088ADF871
:101E7000020032466946284600F08BF808B9002077
:101E8000D1E7A088ADF80000E088ADF80200324646
:101E90006946284600F07DF808B90020C3E7012014
:101EA000C1E70246B2F90000B1F90430984213DCF0
:101EB000B2F90400B1F9003098420DDBB2F902002A
:101EC000B1F90630984207DCB2F90600B1F90230E8
:101ED000984201DB012070470020FCE7F8B504467A
:101EE0000D461646B4F90400B5F90010884211DB1E
:101EF000B4F90600B5F9021088420BDBB4F9000012
:101F0000B5F90410884205DCB4F90200B5F90610F1
:101F1000884201DD0120F8BD0EB90020FBE72088D2
:101F2000ADF800006088ADF80200324669462846E8
:101F300000F02FF808B10020EDE7A088ADF8000010
:101F40006088ADF8020032466946284600F021F864
:101F500008B10020DFE72088ADF80000E088ADF888
:101F6000020032466946284600F013F808B1002006
:101F7000D1E7A088ADF80000E088ADF80200324655
:101F80006946284600F005F808B10020C3E70120A3
:101F9000C1E72DE9FC5F05460E4614464FF0000AE6
:101FA000B6F90000B5F90010884213DBB6F900005D
:101FB000B5F9041088420DDCB6F90200B5F902103B
:101FC000884207DBB6F90200B5F90610884201DC49
:101FD0004FF0010ABAF1000F02D10020BDE8FC9FCA
:101FE000002C01DC0120F9E728460FF0E3FB8346D3
:101FF00000EBDB70471028460FF062FB834600EBD6
:10200000DB704FEA6008474501DA384600E0404699
:1020100081464C4500DD4C462888ADF800002888F4
:10202000204400B2ADF804006888ADF8020068886A
:10203000204400B2ADF80600002231466846FFF7A2
:10204000A8FF80B1BDF80400204400B2ADF8040040
:10205000BDF80600204400B2ADF8060031466846DF
:102060001DF060FABAE7E888001B00B2ADF8020084
:10207000E888ADF80600002231466846FFF789FF80
:1020800080B1BDF80400204400B2ADF80400BDF8F2
:102090000200001B00B2ADF80200314668461DF098
:1020A00041FA9BE7A888001B00B2ADF80000A888A1
:1020B000ADF80400002231466846FFF76AFF80B1A0
:1020C000BDF80000001B00B2ADF80000BDF8020032
:1020D000001B00B2ADF80200314668461DF022FA3E
:1020E0007CE76888ADF802006888204400B2ADF84B
:1020F0000600002231466846FFF74BFF80B1BDF86D
:102100000000001B00B2ADF80000BDF8060020443E
:1021100000B2ADF80600314668461DF003FA5DE7EF
:1021200001205BE710B5B1F90030B2F90040A342DD
:1021300002DAB1F9003001E0B2F900300380B1F900
:102140000230B2F90240A34202DAB1F9023001E0F2
:10215000B2F902304380B1F90430B2F90440A3422D
:1021600002DDB1F9043001E0B2F904308380B1F945
:102170000630B2F90640A34202DDB1F9063001E0B3
:10218000B2F90630C38010BD2DE9FF41044620F0AE
:1021900011FC05460020039034B14749E06808600F
:1021A000204620F03DFD03E011F0CEFA42490860E0
:1021B0004149096808691DF013F93F480068406902
:1021C00020B13D49096848691DF00AF93A49096892
:1021D000C8691DF005F938490968086A1DF000F959
:1021E00035480068006940B9002033490968A1F802
:1021F000500100BF00BFBDE8FF811DF08FFC1DF046
:10220000D5FB2D480068B0F8500100284BD02A4873
:1022100000680068007CC0F34000E8B12648006810
:1022200011F010FB401E06B22348006811F0A4FA1A
:10223000401E07B23B460022114601A800960FF04F
:10224000F7FA01A81C4909680968896B48601A48AF
:10225000006805F0FDFD00BF4FF48071164800686E
:10226000303018F002F920211348006800F598700A
:1022700018F0FBF8002010490968A1F85001284621
:1022800020F08AFB03900C4800680068406A50B157
:102290000949096808680849096809684B6A0749D3
:1022A0000A680399984717F017FE00F03FF800F00E
:1022B00007F800BF9FE70000500200204C020020FA
:1022C00010B5002416E0C4EBC4000C4951F82000FE
:1022D00030B1C4EBC401094A52F8210017F0AEFE38
:1022E000C4EBC401054A02EB81001C2118F0BDF8C3
:1022F000601CC4B2042CE6DB10BD0000702100207D
:102300000146094A10680BE042688A4202D002681E
:102310008A4204D1027E22F00102521C02764069F8
:102320000028F1D17047000024020020704700000F
:1023300010B50421014800F0E3FF10BD8820002003
:1023400010B51C21014800F0DBFF10BDA0200020CB
:102350002DE9FF4F8BB004469A46199DBAF1000F44
:1023600011D11898B0F5807F0DD1002020806080B9
:102370000C98401E00B2A0800D98401E00B2E08074
:102380000FB0BDE8F08FB5F90000404218994843FE
:102390000121C1EB202000B22080B5F902004042AB
:1023A000189948430121C1EB202000B26080B5F9A3
:1023B00000100C98401A18994843022101EB202084
:1023C00000B2A080B5F902100D98401A1899484340
:1023D000022101EB202000B2E080BAF1000F14D1FD
:1023E00020882988084400B22080608869880844D1
:1023F00000B26080A0882988084400B2A080E088EC
:102400006988084400B2E080BAE70A209AFBF0F03D
:102410000A900A98401C09900A9800EB8000AAEBE9
:10242000400B0A9800B220F073FD0890099800B2A2
:1024300020F06EFD07900A985A3000B220F068FD37
:10244000069009985A3000B220F062FD0590CBF159
:102450000A0108984143079800FB0B100A2190FBE2
:10246000F1F6CBF10A0106984143059800FB0B10E9
:102470000A2190FBF1F776117F11B4F90080B4F9CD
:10248000029007FB08F006FB1900298801EBA02049
:1024900000B2ADF8100006FB08F007FB09006988E0
:1024A00001EBA02000B2ADF81200B4F90480B4F939
:1024B000029007FB08F006FB1900298801EBA02019
:1024C00000B2ADF80C0006FB08F007FB09006988B4
:1024D00001EBA02000B2ADF80E00B4F90080B4F911
:1024E000069007FB08F006FB1900298801EBA020E5
:1024F00000B2ADF8080006FB08F007FB0900698888
:1025000001EBA02000B2ADF80A00B4F90480B4F9E0
:10251000069007FB08F006FB1900298801EBA020B4
:1025200000B2ADF8040006FB08F007FB090069885B
:1025300001EBA02000B2ADF80600BDF90800BDF91E
:102540001010884202DABDF9080001E0BDF9100060
:10255000BDF90410BDF90C20914202DABDF9041056
:1025600001E0BDF90C1088420BDABDF90800BDF995
:102570001010884202DABDF908000DE0BDF9100024
:102580000AE0BDF90400BDF90C10884202DABDF979
:10259000040001E0BDF90C002080BDF90800BDF980
:1025A0001010884202DDBDF9080001E0BDF91000FD
:1025B000BDF90410BDF90C20914202DDBDF90410F3
:1025C00001E0BDF90C1088420BDDBDF90800BDF932
:1025D0001010884202DDBDF908000DE0BDF91000C1
:1025E0000AE0BDF90400BDF90C10884202DDBDF916
:1025F000040001E0BDF90C00A080BDF90A00BDF99E
:102600001210884202DABDF90A0001E0BDF9120099
:10261000BDF90610BDF90E20914202DABDF906108F
:1026200001E0BDF90E1088420BDABDF90A00BDF9D0
:102630001210884202DABDF90A000DE0BDF912005D
:102640000AE0BDF90600BDF90E10884202DABDF9B4
:10265000060001E0BDF90E006080BDF90A00BDF979
:102660001210884202DDBDF90A0001E0BDF9120036
:10267000BDF90610BDF90E20914202DDBDF906102C
:1026800001E0BDF90E1088420BDDBDF90A00BDF96D
:102690001210884202DDBDF90A000DE0BDF91200FA
:1026A0000AE0BDF90600BDF90E10884202DDBDF951
:1026B000060001E0BDF90E00E08000BF60E62DE9F4
:1026C000F74F86B0044620680590B4F908100798C3
:1026D000A0EB0108B4F90A100898A0EB0109E08901
:1026E000B0F5807F13D1206B00FB08F0E16A01FB9D
:1026F0001901606A00EBA10BE06A00FB08F0216B96
:1027000001FB0901A06A00EBA10004902FE0A08961
:1027100080B9A06B00FB08F04FEA6018A06B00FBCB
:1027200009F04FEA6019606A00EB080BA06A4844A0
:1027300004901CE0A06B00FB08F04FEA6018A06B4F
:1027400000FB09F04FEA6019206B00FB08F0E16A1A
:1027500001FB1901606A00EBA12BE06A00FB08F0A5
:10276000216B01FB0901A06A00EBA12004904FEA54
:102770002B2604980712B4F90400B04203DC0020B1
:1027800009B0BDE8F08F002E01DA0020F8E7B4F9B7
:102790000600B84201DC0020F2E7002F01DA002039
:1027A000EEE73420005DC0F3800050B33420005DBC
:1027B000C0F3400078B90225B4F9040078436843B7
:1027C00006FB050A059800EB0A012A4604F11400ED
:1027D00017F0F9FD2CE00325B4F9040078436843B1
:1027E00006FB050A6A1E059800EB0A0104F11400B5
:1027F00017F0E9FD0AEB0500401E0599095CA1757B
:1028000016E04FF0000A0025208A03463AB231B2A2
:10281000019004F1180015F04DF90290BDF8080080
:10282000A0823AB231B204F1180015F0A3F8A075F5
:102830003420005D00F00100B0B14FF47F40002172
:1028400000F47C4241EA5211C0F3C40211430191E9
:10285000BDF8042011460291A08ABDF808108842F4
:1028600001D100208CE700BFE07C08B9012087E798
:102870000FFA8BF1A187049801B2E18731B24020B1
:10288000015339B242200153C4F844A084F848509F
:10289000204600F003F80390039871E72DE9F04F0C
:1028A0008DB00446D4F8009094F83C000C9094F855
:1028B0003E000B900C9870280BDA4FF0FF35B4F9FE
:1028C00040002844002800DA00250C988030C7B268
:1028D00013E00C9890280EDD0125B4F9400028443F
:1028E000B4F90410884200DB00250C98C0F1FF0009
:1028F0008030C7B201E00025FF270B9870280CDA62
:102900004FF0FF36B4F942003044002800DA0026C8
:102910000B98803000F0FF0815E00B9890280FDD31
:102920000126B4F942003044B4F90610884200DBB5
:1029300000260B98C0F1FF00803000F0FF0802E095
:1029400000264FF0FF08A08A0A90A07D0690002084
:102950000590049003903420005DC0F380000028AF
:102960005BD094F84800626C00FB052000EB090185
:10297000022209A817F027FDB4F9040094F84820B2
:102980005043626C00FB062000EB0901022208A8FC
:1029900017F019FDB4F9040094F848205043626C14
:1029A00000FB062294F8480000FB052000EB09011B
:1029B000022207A817F007FD3420005DC0F3400095
:1029C00000287ED094F84800616C00FB0511084493
:1029D000401E19F800000590B4F9040094F848105E
:1029E0004843616C00FB061194F848000844401EFF
:1029F00019F800000490B4F9040094F84810484312
:102A0000616C00FB061194F8480000FB05110844B6
:102A1000401E19F80000039053E0208A0090B4F99A
:102A200042204020005B284401B204F11800009BC2
:102A300015F040F80990208A00904220005B304455
:102A400002B2B4F9401004F11800009B15F032F8FE
:102A50000890208A00904220005B304402B240205F
:102A6000005B284401B204F11800009B15F022F825
:102A700007903420005DC0F3400010B3B4F9422049
:102A80004020005B284401B204F1180014F072FFEA
:102A900005904220005B304402B2B4F9401004F1CA
:102AA000180014F067FF04904220005B304402B22B
:102AB0004020005B284401B204F1180014F05AFFD2
:102AC0000390BA46BB463420005DC0F34000E0B33B
:102AD00006987843C7F1FF0C059B03FB0C00C0F37D
:102AE000072104987843C7F1FF0C039B03FB0C00FC
:102AF000C0F3072201FB08F0C8F1FF0302FB03004B
:102B0000030AA375022905DC022A03DC00200DB0AC
:102B1000BDE8F08F022901DC4FF00008022A01DC39
:102B20004FF0FF080698022801DC4FF0000A0598D4
:102B3000022801DC4FF0FF0A0498022801DC4FF064
:102B4000000B0398022803DC00E002E04FF0FF0BCB
:102B500003E0BA46BB46FF21A175BAF1000F02D1CE
:102B6000099802900BE0BAF1FF0F02D10A98029087
:102B700005E05246DDE9091010F086FB0290BBF13A
:102B8000000F02D1079801900BE0BBF1FF0F02D1BB
:102B90000898019005E05A46DDE9071010F074FB33
:102BA0000190B8F1000F03D1BDF80400A0820FE03E
:102BB000B8F1FF0F03D1BDF80800A08208E042463B
:102BC000DDE9011010F060FB0090BDF80000A0826C
:102BD00001209CE72DE9F05F0446B4F908000102EA
:102BE0006162B4F90A000102A162B4F90C000A2181
:102BF00090FBF1F56F1CB4F90C0005EB8501A0EB1F
:102C00004106684200B220F083F98046784200B263
:102C100020F07EF98146C5F15A0000B220F078F923
:102C20008246C7F15A0000B220F072F98346C6F11D
:102C30000A0000FB08F009FB06000A2190FBF1F1F5
:102C4000E162C6F10A0000FB0AF00BFB06000A2154
:102C500090FBF1F12163E06A4111E162206B4111C7
:102C60002163A07C15F035F83421095D60F3000183
:102C700034200155A07C15F00FF83421095D60F374
:102C8000410134200155A07C042805D0A07C0528F2
:102C900002D0A07C062807D13420005D20F004007B
:102CA000001D3421085505E03420005D20F00401AA
:102CB0003420015521682162A06920F0E000A06164
:102CC000A17CA06961F30400A061A188A06961F3FF
:102CD0009420A061E188A06961F35F50A061E08960
:102CE00000EBD071491001F5001191FBF0F2A263E5
:102CF000FF21A175208AA082BDE8F09F2DE9F7434E
:102D0000054616460024134C1FF054FE80463346F9
:102D100029462046019A15F045FC07465FB900BFD9
:102D200000BF2C21204617F0A0FB4FF00040A0620E
:102D30000020BDE8FE830020A062E06918B940468B
:102D40001FF02AFEE061E06908B90120E061204639
:102D5000EFE70000C420002010B51421114800F056
:102D6000CFFA15F0D1FB044600BF1CB900BF00BF6D
:102D700000BFFEE700BF14B900BF00BF10BD0A4985
:102D8000204615F0A9FC0949204615F0A7FC084982
:102D9000204615F0A5FC0749204615F09BFC00BF16
:102DA000ECE70000AC200020257D0108F981010836
:102DB00015840108ED7C010870B504460D4610210C
:102DC000284617F052FB20680078012804D1208A99
:102DD0002880608A68800CE020680078022802D190
:102DE000E068686005E020680078042801D10A20C6
:102DF00068602068406820B1206829464268904792
:102E000001E000BF00BF70BD2DE9FE430446A66A85
:102E1000EEB9A18A208A084401B2A182E18A608ABF
:102E2000084401B2E18220460AF0EFFA06460EB9E4
:102E3000BDE8FE8320460DF0F5FA00220921304658
:102E400013F00EFF6078C0F3400000B1F0E7208A75
:102E500010B9608A002870D000200290019094F888
:102E60003C0000F00F00032812D1304619F074F82E
:102E70000746304618F0F8FF804603200090B4F96A
:102E800010103B464246304609F046FD029012E0E3
:102E9000304619F0E3F80746304618F07BFF8046CD
:102EA0000C200090B4F9121043463A46304609F01F
:102EB00033FD019000BF304618F0CCFF054605F009
:102EC000010028B9BDF90800002801DD00200290AA
:102ED00005F0020028B9BDF90800002801DA002039
:102EE000029005F0040028B9BDF90400002801DDB6
:102EF0000020019005F0080028B9BDF90400002861
:102F000001DA0020019001AA02A9204623F070FAFC
:102F10000023BDF90420BDF9081030461BF002FD66
:102F2000A08ABDF80810084401B2A182E08ABDF869
:102F30000410084401B2E18200BF00BF78E72DE928
:102F4000F84F0446D4F828B0BBF1000F01D1BDE81A
:102F5000F88F94F83C0000F00F0000B9F7E715F087
:102F600021FC06463068477E402158461AF0E0FAB8
:102F700010B9002161832183584619F05BF880461F
:102F8000584619F061F8054694F83C0000F00F002F
:102F90000C2843D1002121831DBBB4F91A00C7F1CD
:102FA00064014843642190FBF1F001B2618358460B
:102FB00018F0F0FE8146584619F050F882460C2071
:102FC0000090B4F91A104B465246584609F0A4FC3A
:102FD0006083B4F91A200023194658461BF0A2FC5E
:102FE00069E0204623F05BFA0090002161836A4685
:102FF000204623F0FDF9BDF9003041F6FF72514241
:1030000058460AF0ABFB8146BDF80000484402B2C6
:103010000123002158461BF085FC4CE094F83C004D
:1030200000F00F00032846D100216183B8F1000FA2
:1030300023D1B4F91800C7F164014843642190FB1F
:10304000F1F001B22183584618F00EFF8146584630
:1030500018F082FF824603200090B4F918105346FE
:103060004A46584609F058FC2083B4F9181000234A
:103070001A4658461BF056FC1DE0204623F0F4F992
:1030800000900021218300226946204623F0B0F9F8
:10309000BDF9003041F6FF72514258460AF0C4FAB9
:1030A0008146BDF80000484401B201230022584681
:1030B0001BF038FC00BF208B002860D1608B0028FB
:1030C0005DD11DBB584618F0C9FF8146584618F01F
:1030D00061FE8246B9F1000F02DCBAF1000F14DD87
:1030E000B9F1000F06DA01234A46002158461BF0C9
:1030F00019FC0AE0BAF1000F07DA0123CAF1000057
:1031000002B2002158461BF00DFC00BFB8F1000FC1
:1031100023D1584618F0A8FE8146584618F01CFFE7
:103120008246B9F1000F02DCBAF1000F14DDB9F1EB
:10313000000F06DA01230022494658461BF0F2FB35
:103140000AE0BAF1000F07DA01230022CAF10000F9
:1031500001B258461BF0E6FB00BF32460A21584632
:1031600013F07EFD6078C0F3400000B1EFE694F804
:103170003C0020F00F0184F83C100021A16200BF48
:10318000E5E62DE9FF4104460F4614B910F0DCFADC
:1031900004460CB9BDE8FF811FB90020A4F8500116
:1031A000F8E70020ADF80800ADF80A00204610F05E
:1031B000E3FA401E00B2ADF80C00204610F042FBCE
:1031C000401E00B2ADF80E0002AA39466846FEF76E
:1031D000C9FD064606B9DDE72068007CC0F3400063
:1031E00060B102982063039860630120A4F8500145
:1031F000606810B160681FF01FFDCBE72068806930
:1032000018B1206869468269904700250BE004F1F7
:10321000300000EBC50100226846FEF7E4FD00B176
:10322000B8E7681C85B2B4F85001A842EFDCB4F8E6
:103230005001202809DAB4F8502104F1300101EBE3
:10324000C20069460EF0BCF90BE00020A4F8500162
:10325000B4F8502104F1300101EBC20002A90EF0D4
:10326000AFF9B4F85001401CA4F85001606810B1E7
:1032700060681FF0E1FC00BF8CE770B5054628468A
:1032800000F013F8044600260CE02146284600F022
:1032900024F806462146284600F086F8204616F017
:1032A000CDFE3446002CF0D170BD014609B9002096
:1032B00070474868FCE770B5064600243046FFF7C3
:1032C000F4FF054605E0641C2946304600F005F889
:1032D0000546002DF7D1204670BD02460B4610680A
:1032E000001D03441868704702460B4610680344EB
:1032F00018687047014609B9002070478868FCE7E4
:10330000002242608260CA1C22F003010160704703
:1033100070B50446216801F1080016F0C1FD0546AC
:10332000A5B100222946204620F0A0FF29462046CC
:10333000626820F08DFF606820B12A4620466168EF
:1033400020F094FF6560A06800B9A560284670BDB4
:1033500070B50446216801F1080016F0A1FD05468C
:10336000A5B100222946204620F072FF29462046BA
:10337000A26820F07BFFA06820B12A462046A16801
:1033800020F066FFA560606800B96560284670BDE2
:10339000014609B901207047486818B9886808B91A
:1033A0000120F8E70020F6E72DE9F04104460D463C
:1033B0000CB9BDE8F0812046FFF777FFA8420FD196
:1033C00029462046FFF789FF6060606810B9002039
:1033D000A0602FE000222046616820F047FF29E02E
:1033E0002046FFF787FFA8420FD129462046FFF766
:1033F0007BFFA060A06810B9002060601AE0002286
:103400002046A16820F024FF14E029462046FFF75B
:103410006BFF064629462046FFF75FFF07463A4600
:103420003146204620F014FF32463946204620F02F
:103430001DFF00BF00BFBCE710B5044620688068D0
:1034400018B120682146826890472068006828B13A
:103450002068006820602046FFF7EEFF10BD01469F
:10346000886818B18868B0F9160070470020FCE73A
:103470002DE9F04F93B005468B4691469A461C9E27
:10348000688C20F00400001D6884A5F82090328923
:103490005946284619F01FFE1290A5F820A032893F
:1034A0005946284619F017FE1190688C20F0040048
:1034B0006884DDE9111088420CD1DDE911108842E1
:1034C00008D1BDF84800BDF84410884202D113B0BD
:1034D000BDE8F08FA5F8209032895946284619F0AA
:1034E000FAFD1290A5F820A0594628460BF0BFFC23
:1034F00010903189109A1068129A1EF09BF830894A
:10350000602833D147F6FF711298884202D0119893
:1035100088422BD1284619F0D1FF0F9000EBD070D4
:103520004710284619F0CAFF0F9000EBD0704FEA01
:10353000600847F6FF711298884208D1781C08F19C
:103540000101884200DA01E008F10100129047F61B
:10355000FF711198884208D1781C08F10101884256
:1035600000DA01E008F10100119000BF2448FFF7E4
:10357000CFFE044600BF1CB900BF00BF00BFFEE77E
:1035800000BF04B9A3E71298E06011982061ACB3C2
:1035900025603089A080C4F808B068460DF004FFAB
:1035A000214668460DF090FF164968460DF05EFF13
:1035B0001548029000BF154968460DF063FFFF22D1
:1035C000002168460DF070FF318868460DF062FFFB
:1035D000718868460DF045FFF068069000BF6846A8
:1035E000002190F83E2061F3000280F83E2000BFE9
:1035F0003069059068460DF07FFF00BF00BF66E7A9
:10360000B8200020558F020801920208319102086B
:1036100010B514210148FFF773FE10BDB82000203B
:103620002DE9FE4F04460F4690464FF00009002555
:103630006BE1E06800EBC5004068C0F3406000B19A
:1036400062E1E16801EBC501496821F07F401BF0B0
:10365000C3FE064626EA070008B9012000E0002064
:10366000029026EA080008B9012000E0002001903D
:10367000DDE90101814272D0E06850F835A04FF0D9
:10368000000B6A4641F6100150461DF095FC10B142
:103690004FF0010BA9E06A4641F6110150461DF0BA
:1036A0008BFC10B14FF0010B9FE06A4641F612010E
:1036B00050461DF081FC10B14FF0010B95E06A46B9
:1036C00041F6130150461DF077FC10B14FF0010B8D
:1036D0008BE06A4641F6150150461DF06DFC10B1B5
:1036E0004FF0010B81E06A4641F6140150461DF08F
:1036F00063FC10B14FF0010B77E06A4641F26901BB
:1037000050461DF059FC10B14FF0010B6DE06A46B8
:1037100043F20C0150461DF04FFC10B14FF0010B6D
:1037200063E06A4643F20D0150461DF045FC10B1BE
:103730004FF0010B59E06A4641F2010150461DF07D
:103740003BFC10B14FF0010B4FE06A4641F204011F
:1037500050461DF031FC18B14FF0010B45E0D2E0AE
:103760006A4641F2020150461DF026FC10B14FF0AE
:10377000010B3AE06A4641F2030150461DF01CFC81
:1037800010B14FF0010B30E06A4641F2050150469E
:103790001DF012FC10B14FF0010B26E06A4641F219
:1037A000060150461DF008FC10B14FF0010B1CE063
:1037B0006A4641F2320150461DF0FEFB10B14FF057
:1037C000010B12E06A4643F60F0150461DF0F4FB70
:1037D00010B14FF0010B08E06A4643F60E01504667
:1037E0001DF0EAFB08B14FF0010BBBF1000F02D056
:1037F0000320BDE8FE8F6A4640F60A0150461DF0E0
:10380000DBFB10B14FF002097CE06A4640F60B0189
:1038100050461DF0D1FB10B14FF0020972E06A462C
:1038200043F60F0150461DF0C7FB10B14FF00209DF
:1038300068E06A4643F60E0150461DF0BDFB10B12C
:103840004FF002095EE06A4640F63C0150461DF02A
:10385000B3FB10B14FF0020954E06A4640F63D0157
:1038600050461DF0A9FB10B14FF002094AE06A462C
:1038700040F63A0150461DF09FFB10B14FF002098F
:1038800040E06A464FF4046150461DF095FB10B1CC
:103890004FF0020936E06A4640F6450150461DF0F9
:1038A0008BFB10B14FF002092CE06A4640F6410153
:1038B00050461DF081FB10B14FF0020922E06A462C
:1038C00040F6420150461DF077FB10B14FF002095F
:1038D00018E06A4640F6430150461DF06DFB10B1FA
:1038E0004FF002090EE06A4640F6490150461DF0CD
:1038F00063FB10B14FF0020904E0B9F1000F01D1F0
:103900004FF0010900BF00BF6D1C608CC0F3C50003
:10391000A8423FF68EAE48466BE7000001480068BB
:10392000704700005002002070470146C1F30412A6
:10393000072A00DD0722D0B27047000010B5182119
:103940000348FFF7DDFC01201FF08EF810BD0000DA
:10395000642000202DE9F04105460F4616460DB9BA
:10396000BDE8F0812846FCF74DFE804639462846E2
:103970000A4A126890470746E8193146074A126812
:10398000904706463C4603E0A019285C2855641C75
:10399000A8EB0600A042F7D200BFE1E760030020D9
:1039A0002DE9F04106460C4617461D46294630468D
:1039B000084A126890472060206830B12968881949
:1039C0000021044A1268904700E000203860BDE8FA
:1039D000F0810000580300202DE9F04F87B0044625
:1039E0000F4692469846DDE910560DB1002028801A
:1039F0001CB9002007B0BDE8F08F207808B900207E
:103A0000F8E70FB90020F5E74FF0000906F00200D3
:103A100010B906F0040098B1002000E0401C215CC1
:103A20000A2905D0215C0D2902D0215C0029F5D19D
:103A3000215C01B1401C15B14FF0FF312980D9E75D
:103A400006F0020008B141F6FF78002006900590CC
:103A500038E000200490059808B9012000E000201B
:103A600006A904AACDE90062CDE902100599601803
:103A70004346524639461FF083FA83460498A8EB22
:103A800000000FFA80F8049848440FFA80F9BBF15F
:103A9000000F00D11CE005985844059020780A28B2
:103AA00002D020780D2800D112E00598205C0A2869
:103AB00003D00598205C0D2803D10598401C059083
:103AC00006E000BF0598205C10B1B8F1000FC0DC23
:103AD00000BF059870B905A92046094A12689047A9
:103AE000834635B100225946384613F0F8F90FFAEB
:103AF00080F900BF0DB1A5F8009005987AE70000A5
:103B0000580300202DE9F04706468846174606B1BF
:103B10000FB9BDE8F0873046FCF774FD81463846A2
:103B2000FCF770FD044604B9F3E704EB090A4146CB
:103B300030460B4A126890478046554603E0281BE2
:103B4000305C70556D1E08EB0400A842F7D906EBF7
:103B500008002246394616F042FC00BFD9E70000B3
:103B600060030020024600200FA31B788B4211D176
:103B700013781BB90123137001200BE01378012B7C
:103B800002D10023137005E01378022B02D1002329
:103B9000137001201378012B04D1202901D10223B5
:103BA00013700120704700002300000073B582B03D
:103BB000064603980190324600210846019B1FF0FB
:103BC000FBFC0546002001900024681C16F068F9F3
:103BD000044600BF1CB900BF00BF00BFFEE700BF26
:103BE00014B9002004B070BD002060553246691C35
:103BF0002046039B1FF0E0FC2046F3E72DE9F04749
:103C000081460E4614461F46DDF820A035461BE0CF
:103C1000600800FB075529464846D047B0F1000828
:103C200009DD04F0010080F00100C0EB5404E81944
:103C30000546064608E0B8F1000F02DA640835468A
:103C400002E02846BDE8F087002CE1D10020F9E72A
:103C50002DE9F04105460E4604273188781E814241
:103C600002DD0020BDE8F08134880DE0621EC2EB69
:103C7000C20205EB8201C4EBC40205EB82001C22E8
:103C8000FCF724FD601E84B2002CEFDC1C212846CA
:103C9000FCF770FD0120E5E701460522501E094BA7
:103CA0001B88984201DA002070470748054B1B88A3
:103CB00040F8231003480088401C024B1880012064
:103CC000F2E700008C030020A47200202DE9FF4FD2
:103CD00085B08346DDE9158ADDE91349DDE917750D
:103CE000129E05F00200F8B94FB105F0010030B1A5
:103CF000B9F1000F02D105F00C0000B17F1E03E006
:103D000030222046641C3254544501D2202CF7D373
:103D100003E030222046641C325405F0010018B143
:103D2000BC4201D2202CF4D305F01000B0B305F44E
:103D3000806050B94CB1544501D0BC4205D1641EDD
:103D40001CB1B8F1100F00D1641EB8F1100F09D1E9
:103D500005F0200030B9202C04D278222046641CC3
:103D6000325415E0B8F1100F09D105F0200030B140
:103D7000202C04D258222046641C325408E0B8F1AA
:103D8000020F05D1202C03D262222046641C32543B
:103D9000202C03D230222046641C3254202C16D210
:103DA000B9F1000F04D02D222046641C32540EE0DD
:103DB00005F0040020B12B222046641C325406E09A
:103DC00005F0080018B120222046641C3254CDE9C9
:103DD0000275CDE90064584606A90EC900F0A2F8A4
:103DE00009B0BDE8F08F2DE9FF4F8FB08046DDE9C7
:103DF0001FABDDE91D96219D1C9C00270CB925F009
:103E0000100505F4806000B1E4B100BFB4FBF6F129
:103E100006FB1141C8B20A2802DA00F1300107E0BE
:103E200005F0200109B1412100E0612101440A3976
:103E3000CBB239467F1C07AA5354B4FBF6F40CB13D
:103E4000202FE3D307A8CDE904AB8DE881020396C8
:103E50000695404610A90EC9FFF738FF13B0BDE81C
:103E6000F08F2DE9FF4F8FB0DDE9217BDDF89080E9
:103E7000209EDDE91C454FF00009002184EA010085
:103E80006940084301D128F0100808F4806028B187
:103E9000002184EA0100694008432DD000BF32466A
:103EA0003B4620462946FCF7E1F902F0FF0ABAF149
:103EB0000A0F02DA0AF1300007E008F0200008B12A
:103EC000412000E0612050440A38C2B2484609F15E
:103ED000010907A90A5432463B4620462946FCF709
:103EE000C5F904460D46002184EA010069400843F3
:103EF00002D0B9F1200FD2D32398CDE9036BCDE9DD
:103F0000050807A91E98CDE9001902900FA80FC84F
:103F1000FFF7DCFE13B0BDE8F08F9A4200D2885460
:103F2000704770472DE9FF5F05461446DDE90EA690
:103F3000DDE91087A34607F0020078B907F0010019
:103F400060B9B14607E02246641C2020039B01991A
:103F5000A84709F10109C145F5D300BF08E0224691
:103F6000641C711E0E461AF80100039B0199A847B4
:103F7000002EF4D107F0020050B105E02246641C87
:103F80002020039B0199A847A4EB0B004045F5D3E3
:103F9000204604B0BDE8F09F7FB505460C464FF4BF
:103FA000E06021F0F5FB4FF0804024F0C5FE681E74
:103FB00080B2ADF800000020ADF80200ADF80400BA
:103FC0000294ADF80C008DF80E0069464FF0804069
:103FD00024F026FF012211461C2020F081FE012141
:103FE000880724F08DFF4FF0804024F013FF7FBD41
:103FF0002DE9FF4F8BB0074600250C9800B9FA4F0A
:10400000EAE20E98007825280AD02A466D1C0E99FF
:104010000878DDE90C13B8470E98401C0E90DBE2DF
:104020000E98401C0E90002400BF0E9800782B289C
:1040300019D004DC20281ED023282CD123E02D28E1
:1040400009D0302827D144F001040E98401C0E906E
:1040500001200A9022E044F002040E98401C0E90C9
:1040600001200A901AE044F004040E98401C0E90BF
:1040700001200A9012E044F008040E98401C0E90B3
:1040800001200A900AE044F010040E98401C0E90A3
:1040900001200A9002E000200A9000BF00BF0A98A9
:1040A0000028C2D180460E990878FDF730FE20B175
:1040B0000EA8FDF717FE804612E00E9800782A2819
:1040C0000ED1189901C91891002804DA44F00204AD
:1040D000C0F1000800E080460E99491C0E9100BF17
:1040E0004FF000090E9800782E281FD144F4806408
:1040F0000E98401C0E900E990878FDF708FE20B12E
:104100000EA8FDF7EFFD814610E00E9800782A28F2
:104110000CD1189901C91891002801DD014600E071
:10412000002189460E99491C0E9100BF0E98007817
:104130006C280AD004DC682816D06A2835D128E01B
:10414000742820D07A2830D129E044F480740E9865
:10415000401C0E900E9800786C2804D144F4007432
:104160000E98401C0E9021E044F080040E98401CF4
:104170000E900E980078682804D144F040040E9800
:10418000401C0E9012E044F480740E98401C0E9077
:104190000CE044F400740E98401C0E9006E044F4C9
:1041A00080740E98401C0E9000E000BF00BF0E9877
:1041B000007869281DD00EDC622821D006DC252875
:1041C0007ED050281AD058287BD115E0632879D0AA
:1041D0006428F9D10CE0732875D004DC6F280ED068
:1041E0007028F1D109E0752804D07828ECD102E0DC
:1041F00000BF00BF00BF00BF00BF00BF00BF00BFC7
:104200000E980078782803D00E980078582801D1AD
:10421000102623E00E980078702803D00E980078BE
:1042200050280CD1102644F0100444F480740E98E9
:104230004078562812D10E98401C0E900EE00E9831
:1042400000786F2801D1082608E00E9800786228CF
:1042500001D1022602E00A2624F010040E9800780C
:10426000582803D00E980078502801D144F020043B
:104270000E980078692805D00E980078642801D03F
:1042800024F00C0404F4806008B124F001040E98BA
:104290000078692803D00E98007864287CD104F453
:1042A0000070B8B31898C01D20F007001890D0E92E
:1042B00000AB189A083218920020CDE9069803E066
:1042C00073E17CE1F2E01CE1CDE904600894BAEB13
:1042D00000017BEB000001DA012000E0002000215A
:1042E00002900846B1EB0A0170EB0B0002DA50466F
:1042F000594605E000200146B0EB0A0061EB0B01D6
:10430000CDE900012A463846DDE90C13FFF7A9FD87
:104310000546C7E0FFE704F48070D0B1189850F864
:1043200004AB18904FEADA70CDE903980296059431
:10433000BAF1000F01DD514601E0CAF10001CDE9FB
:1043400000102A463846DDE90C13FFF74CFD054600
:10435000A8E004F0400028B1189810F8041B189049
:10436000C8B20DE004F0800028B1189830F8041BA2
:10437000189008B204E0189800681899091D18915F
:1043800082464FEADA70CDE9039802960594BAF1B5
:10439000000F02DD514602E00BE0CAF10001CDE959
:1043A00000102A463846DDE90C13FFF71CFD0546D0
:1043B00078E00E980078562818D1189850F804AB79
:1043C0001890DAF804000068099009980090DAF86B
:1043D00000300D98421B0C9841193846FFF708FE33
:1043E0000544002009905DE0233F000804F40070BC
:1043F000D0B11898C01D20F00700CDE906980894A8
:1044000018900020CDE904600290189903C9189A09
:1044100008321892CDE900012A463846DDE90C132E
:10442000FFF71FFD05463DE004F4807098B10022BF
:10443000CDE9039802960594189800681899091D0B
:10444000CDE9000218912A463846DDE90C13FFF742
:10445000CAFC054626E004F0400028B1189810F880
:10446000041B1890C8B20DE004F0800028B1189821
:1044700030F8041B189088B204E018980068189966
:10448000091D189182460020CDE900A0CDE90398CE
:10449000029605942A463846DDE90C13FFF7A3FC83
:1044A000054600BF0E98401C0E9093E0012604F0D4
:1044B000020050B905E02A466D1C2020DDE90C13EE
:1044C000B8473046761C4045F5D3189911F8043B9F
:1044D000D8B22A466D1C1891DDE90C13B84704F0D8
:1044E000020050B105E02A466D1C2020DDE90C13C6
:1044F000B8473046761C4045F5D30E98401C0E90C8
:1045000068E0189850F804AB18905046B9F1000FC5
:1045100001D0494601E04FF0FF310A46014600E074
:10452000491C0B781BB1131EA2F10102F8D10E1A1F
:1045300004F4806028B14E4501D2304600E0484680
:10454000064604F0020050B905E02A466D1C202002
:10455000DDE90C13B8473046761C4045F5D306E03C
:104560001AF8010B2A466D1CDDE90C13B8479AF8BE
:10457000000040B104F480600028F1D0B9F10000DF
:10458000A9F10109ECD104F0020050B105E02A467E
:104590006D1C2020DDE90C13B8473046761C4045E1
:1045A000F5D30E98401C0E9014E02A466D1C252071
:1045B000DDE90C13B8470E98401C0E900AE02A461D
:1045C0006D1C0E990878DDE90C13B8470E98401C55
:1045D0000E9000BF00BF00BF0E98007800287FF447
:1045E00010AD0D98854201D2284601E00D98401E7D
:1045F00002460020DDE90C13B84728460FB0BDE89D
:10460000F08F816841F00801816000BF816801F08E
:1046100008010029FAD1816841F00401816000BFDE
:10462000816801F004010029FAD1704730B50129F1
:1046300002D002291AD10CE0C36A23F47003C362CA
:10464000C36A541E4FF4700505EA04542343C36241
:104650000DE0836B23F440138363836B541E4FF48C
:10466000401505EA04542343836300E000BF00BF04
:1046700030BD21B1826842F40062826003E082684A
:1046800022F4006282607047816801F0010119B96B
:10469000816841F001018160704772B101F001034E
:1046A0001BB1836843F48013836001F0020393B16C
:1046B000836843F4004383600DE001F001031BB104
:1046C000836823F48013836001F002031BB18368C5
:1046D00023F4004383607047012902D0022910D1DE
:1046E00007E0836823F46023836083681343836057
:1046F00008E0836823F4E0438360836813438360A6
:1047000000E000BF00BF7047F0B50C46876BC7F3F1
:104710000156856B371B07EB8707C7F10F0C1F2767
:1047200007FA0CF7BD43371B07EB8707C7F10F07E5
:1047300002FA07F73D4385630A2A0DDA016902EBA5
:10474000420C072707FA0CF7B94302EB420703FABA
:1047500007F73943016112E0122A10DAC168A2F1A9
:104760000A0707EB470C072707FA0CF7B943A2F132
:104770000A0707EB470703FA07F73943C160F0BDA3
:104780000549096821F47021034A1160114609683E
:10479000014311607047000004240140AAB101F4F4
:1047A00080731BB1436843F48073436001F48063FA
:1047B0001BB1436843F48063436001F00203CBB153
:1047C000836843F00203836014E001F480731BB13B
:1047D000436823F48073436001F480631BB1436832
:1047E00023F48063436001F002031BB1836823F06C
:1047F00002038360704700000348006840F4000033
:104800000149086070470000082401402DE9F0418B
:1048100004460E46002774B13146204600F02DF8BC
:104820000546B5F5004F05D20C2D01D9284600E00C
:104830000C20074600BF3846BDE8F081024600BFA5
:10484000481E084018B100BF00BF00BFFEE700BF10
:10485000481E1040101A704710B502464B1E1344F4
:104860004C1E23EA040000BF4B1E0B401BB100BFCF
:1048700000BF00BFFEE700BF10BD024600BF481EDC
:10488000084018B100BF00BF00BFFEE700BF481ED0
:1048900010444B1E984370472DE9F04180460E4668
:1048A000444601206086002500270DE056F82700C9
:1048B00025A1FBF7B1FF10B1681C85B202E0608E44
:1048C000401C6086781C87B256F8270020B156F845
:1048D000270000780028E9D1208EA84201D1BDE848
:1048E000F081A06A20B1A06A15F0A8FB0020A062A8
:1048F000E06A20B1E06A15F0A1FB0020E062E80068
:1049000015F0CEFAA06200BFA06A18B900BF00BFC0
:1049100000BFFEE700BF680015F0C2FAE06200BF0A
:10492000E06A18B900BF00BF00BFFEE700BFA06A81
:1049300008B1E06A00B900256900E06A15F095FD4C
:10494000258600BFCBE700000A0000002DE9F84FE4
:1049500081460E46924699F8090000F007000228A9
:1049600001D1304600E050468346564501DD3046D1
:1049700000E050460746032000EB470020F003000C
:1049800000F110053948006839490968A0EB0108B1
:10499000002405EB080037490968884206D23348ED
:1049A0000468606820F0004060603AE031480068C8
:1049B000854221D813E04FF0FF3000900022694675
:1049C0002D480BF049FF002269462C480BF044FFAC
:1049D0002648006826490968A0EB010800BF08EBDB
:1049E0000500244909688842E5D8204804686068C1
:1049F00020F00040606014E0284615F051FA0446AB
:104A000000BF1CB900BF00BF00BFFEE700BF14B964
:104A10000020BDE8F88F606820F0004000F1004001
:104A2000606032465946484601F089FD2060606862
:104A300000F04040401C6060606820F08040606092
:104A4000A781A4F80EB06068C00F20B1204600F125
:104A50001001A16008E0054800681030A06003481C
:104A600000682844014908602046D2E75802002027
:104A70002803002054020020EDD30008590B010840
:104A800010B50120074908700748FEF70EFC20B951
:104A9000064800681EF0C4F803E0044800681EF0F1
:104AA000CBF810BD10030020942000201403002038
:104AB00010B5044694F83E00C0F3400050B9A08FF2
:104AC000002807DDA08F4FF6FF71884202D0A08F2B
:104AD000401EA087A08FA8B9606B20B194F83E005B
:104AE000C0F3400070B121461748FEF75DFCFFF7A8
:104AF000C7FFE06810B12046E1688847204615F0FE
:104B00009DFA1FE0A06B4042E062606BD0B194F868
:104B10003E10C1F3400111B9216B4942E16294F8A2
:104B20003E104908C94394F83E2061F3410284F8DD
:104B30003E20E069616AE1616062A06A616BA16226
:104B4000606300BF10BD0000942000202DE9F041FB
:104B50008046424800681DF01FFF06464048007826
:104B600080F001003E4908703E48FEF79EFB044677
:104B70006BE000203C49087094F83E00C0F38000D0
:104B800037490978884253D0354801782C34A07CC5
:104B900061F38200A07420688719A07C2C3CC0F3CC
:104BA000C00010BBE06A00281FDC002F1DDB94F85A
:104BB0003E0000F0010060B9206950B12046216933
:104BC00088470546E0692844E061606A28446062DD
:104BD00000BFA06810B12046A168884794F83E0045
:104BE00020F00800083084F83E00E06A3044E062BB
:104BF000E06A00281BDBD4E90A10884201DDA06AC4
:104C0000E0622046A16988470546206AA84206D08E
:104C10002562606818B12946D4E900029047D4E9BA
:104C20000A10884202DB2046FFF742FF00BF00BFA8
:104C30000D48007820B10B48FEF737FB044604E02E
:104C400021460848FEF749FB0446002C91D11DF08F
:104C5000B1FE02490860BDE8F08100000C030020AD
:104C6000110300209420002010030020F7B582B02B
:104C700004460E4614B9049805B0F0BD00BF632287
:104C80003146204618F027FA0190019D00BFBDB1C2
:104C90002868A8B100BF64223146204618F01BFAEC
:104CA00001900198C0B207464FB13A462B6828469A
:104CB000049998470190BDF80400ADF8100000BFBA
:104CC0000498D9E770B504460D46606818B12946C6
:104CD0006068FFF7F7FF206818B129462046226870
:104CE000904770BD10B5044600231A46024920467D
:104CF00015F02BFC10BD00000D4F020810B5044646
:104D000000231A460249204615F01FFC10BD000082
:104D1000654F020810B5044600231A460249204692
:104D200015F013FC10BD0000954F02082DE9F0416D
:104D300004460E460027B4F8500044F82060B4F84A
:104D40005000401C1421B0FBF1F201FB1200A4F84A
:104D50005000002510E0B4F8500028441421B0FBA6
:104D6000F1F201FB120054F820804146384626F04B
:104D7000EBFB0746681C85B2142DECD3034938467B
:104D800026F044FC07463846BDE8F0810000A0410B
:104D900001480068704700007805002010B50AF04F
:104DA00001FA044621460C48FFF7C0FF0B49086092
:104DB0000AF0ECF9044621460948FFF7B7FF074916
:104DC00048600AF0E9F9044621460648FFF7AEFFBD
:104DD0000249886010BD00007C0400207805002096
:104DE000D00400202405002070B504460D4600BF05
:104DF000204600F03BF818B100BF00BF00BFFEE73F
:104E000000BF284600F050F9001D6168084460604A
:104E1000204600F03AF8204670BD70B505460C46B5
:104E2000284600F041F904F11001884201D3012025
:104E300070BD0020FCE70146A1F1080070477CB579
:104E400005460C46204600F02FF906466A4601A9A1
:104E50001FF03EF821462846DDE900320BF0B4FB96
:104E60007CBD0146087900F00100704710B504468A
:104E7000204600F019F908B9012010BD0020FCE718
:104E80000146087900F00200704770B504462046DC
:104E900000F097F805462C60284670BD7CB50646A4
:104EA0000C4600200190009000256CB16A4601A9D3
:104EB00020461FF02AF80198092805DA6A4601A958
:104EC000304621F0D3FB054685B100BF284600F0EF
:104ED000EBF8A04203D200BF00BF00BFFEE700BF57
:104EE00029463046DDE9003221F018F828467CBD1D
:104EF00070B504462046FFF7C8FF0546284600F077
:104F0000BEF8204600F0B6F870BD70B504462046E5
:104F100000F057F80546284600F0B6F8204600F0A5
:104F2000BEF870BD70B506460D46284600F049F83B
:104F3000044600BF1CB900BF00BF00BFFEE700BFB2
:104F40002046FFF78EFF90B100BF2846FFF78EFF87
:104F500018B100BF00BF00BFFEE700BF21463046CA
:104F600000F076F821462846FFF73EFF0546284622
:104F700070BD70B506460D462846FFF781FFF0B1BB
:104F8000284600F057F8044600BF1CB900BF00BF18
:104F900000BFFEE700BF00BF2046FFF762FF18B961
:104FA00000BF00BF00BFFEE700BF2146304600F053
:104FB0004FF829462046FFF717FF054600BF284651
:104FC00070BD2DE9F0410446204600F06DF8061F43
:104FD000204600F0B8F8074631461FF094FF05461A
:104FE00000BF2046FFF742FF18B100BF00BF00BF5F
:104FF000FEE700BF2846BDE8F0812DE9F0410646F6
:105000000C461546002794B100BF1DB900BF00BF74
:1050100000BFFEE700BF2A462146304600F097F861
:105020002046FFF772FF204600F08DF8074638460D
:10503000BDE8F08110B5044600BF2046FFF720FF11
:1050400018B900BF00BF00BFFEE700BF206810BD59
:105050007CB505460C46204600F026F806466A4612
:1050600001A91EF035FF21462846DDE9003220F077
:1050700055FF7CBD416841F00101416070474168C6
:1050800041F0020141607047416821F00201416036
:105090007047426802F003030B4343607047416866
:1050A00021F00101416070470146486820F003008B
:1050B00070472DE9F04706460C46304600F043F8AD
:1050C0008046211F1FF01FFF07463046FFF7ECFF09
:1050D000211D451A00BF384600F035F88146384694
:1050E00000F031F880460421FFF7B6FB814503D07C
:1050F00000BF00BF00BFFEE700BF00BF3046FFF7A4
:10510000D3FF2919091D884203D000BF00BF00BF8B
:10511000FEE700BF29463846FFF7BBFF00BF384611
:10512000FFF7C2FF0C2803D200BF00BF00BFFEE79D
:1051300000BF21463046FFF7ACFF3846FFF7D8FEE8
:105140003846BDE8F087014601F1080070472DE9B7
:10515000F04106460C46154600BF2046FFF781FE8B
:1051600018B900BF00BF00BFFEE700BF29462046B8
:10517000FFF753FE78B129462046FFF79AFF07460E
:105180002046FFF782FE3846FFF779FF3946304662
:10519000FFF755FE00BFBDE8F0812DE9F04106465E
:1051A0000C46154600BF2046FFF75BFE18B100BF56
:1051B00000BF00BFFEE700BF29462046FFF72DFED7
:1051C00088B129462046FFF774FF07463846FFF7A7
:1051D0005BFF39463046FFF7A5FE074639463046A5
:1051E000FFF72DFE00BFBDE8F0812DE9F84306462C
:1051F000344613F0D7FA8046404613F018FB78BBCC
:10520000304611F040FA38B3304611F0B8F8208F2C
:10521000E18E884212D0E08E2087E08E00906A46B0
:105220001C21304611F01CFD0746012F02D03846E4
:10523000BDE8F883304618F042FC00BF404613F04A
:1052400006FB0546042D06D1304616F031FD074613
:10525000002112F061FB09E0304611F077FA05E019
:10526000FFE7208FE086304618F029FC0120DFE7B9
:105270000146C1F3C01070470146C1F3801070476A
:105280000146C1F3C01070470146C1F300207047CA
:105290000146C1F3C00070470146C1F3401070479A
:1052A0000146C1F3402070470146C1F3003070470A
:1052B0000146C1F3001070472DE9FC5F054600224E
:1052C0001146284619F0BAFC0021284617F0D8FBF1
:1052D00081460021284617F07CFE484407B2002191
:1052E000284617F0C9FC48440FFA80FA284617F000
:1052F00009FB384450440FFA80FB3B4E284616F019
:10530000EAFB01904FF000085CE0A868006850F8E4
:1053100028403649204618F016F900B150E02046E2
:1053200018F04AFC002839D10021204617F01CFB58
:105330000090009830B1012807D0022804D003283B
:1053400015D100E000BF00BF00BFB4F91A10B5F9D5
:105350001600081A401CB04201DA304605E0B4F9E4
:105360001A10B5F91600081A401C06B214E0002104
:10537000204618F096F870B904F114000CF06FF99B
:105380003844B04201DA304604E004F114000CF075
:1053900066F9384406B200BF00BF10E0B4F91A1035
:1053A000B5F91600081A401CB04201DA304605E093
:1053B000B4F91A10B5F91600081A401C06B200BF5D
:1053C00008F10108019880459FD30748864209D01B
:1053D00006EB0A0006B25E4502DD3046BDE8FC9FE2
:1053E0005846FBE75846F9E701E0FFFF01000400DB
:1053F0002DE9FC5F054600221146284619F002FC03
:105400000021284617F03CFB82460021284617F071
:1054100051FD50440FFA80F80021284617F0C8FCCF
:1054200050440FFA80F9284617F07CFA484440446B
:1054300000B20190724C284616F04DFB83460021C5
:10544000284617F0A9FA012866D100265BE0A86873
:10545000006850F826706B49384618F074F800B1AF
:1054600050E0384618F0A8FB002839D10021384612
:1054700017F07AFA0090009830B1032805D006287A
:1054800004D0082815D102E000BF00BF00BFB5F965
:105490001800B7F91410401A401CA04201DA204647
:1054A00005E0B5F91800B7F91410401A401C04B211
:1054B00014E00021384617F0E7FF70B907F1140037
:1054C0000CF032F94044A04201DA204604E007F132
:1054D00014000CF029F9404404B200BF00BF10E0F2
:1054E000B5F91800B7F91410401A401CA04201DAAF
:1054F000204605E0B5F91800B7F91410401A401C11
:1055000004B200BF761C5E45A1D33D48844269D0F9
:1055100004EB090004B265E000265BE0A8680068BF
:1055200050F826703749384618F00DF800B150E0B1
:10553000384618F041FB80BB0021384617F014FABA
:105540000090009830B1012805D0042804D0072825
:1055500015D102E000BF00BF00BFB7F91800B5F9D0
:105560001410401A401CA04201DA204605E0B7F9A9
:105570001800B5F91410401A401C04B215E00021BF
:10558000384617F08EFF78B907F114000CF0CCF80C
:105590004844A04202DA204605E008E007F1140082
:1055A0000CF0C2F8484404B200BF00BF10E0B7F9E5
:1055B0001800B5F91410401A401CA04201DA204628
:1055C00005E0B7F91800B5F91410401A401C04B2F0
:1055D00000BF761C5E45A1D30948844202D004EB8B
:1055E000080004B20648844202D10198BDE8FC9F3D
:1055F0000198844201DD2046F8E70198F6E70000B3
:1056000001E0FFFF010004007CB504460D4616468C
:1056100028882189084400B2ADF8000068886189B3
:10562000084400B2ADF80200A8882189084400B2FD
:10563000ADF80400E8886189084400B2ADF80600BE
:10564000324669462046636998477CBD2DE9F84398
:105650000446002500260027A846A946204615F046
:105660009FFD0746384619F031F90022494938466E
:1056700015F000F800220A21384619F000FE4648CD
:105680000DF026FD002201460090384619F056FD27
:105690000022FF21384619F06EFD4622502138467F
:1056A00019F030FC5A220A21384619F002FC042174
:1056B000384619F02DFB39481BF0FEFC0021374815
:1056C0001BF0D2FE002135481BF0DCFE3448008878
:1056D00081B232481BF0E4FE022130481BF05BFF30
:1056E00004212E481BF090FF00222C49384614F06C
:1056F000C1FF384615F054FD0646304619F0E6F86D
:1057000022225021304619F0FDFB304613F0B6FA44
:10571000054600231A460921284615F00CF82148B1
:105720000DF0D6FC002201460090284619F0C0FD7D
:1057300000221D49284619F0CCFD1CA1284614F072
:10574000A5FA38460CF0C0FA81461E220F214846C1
:1057500019F0D8FB38461BF08BF980461E22282111
:10576000404619F0CFFB4CF25032002140461BF06E
:105770002AFB0022052140461BF0D9FA38460CF0DE
:10578000A3FA81461E220F21484619F0BBFBBDE853
:10579000F8830000EC730020E0E0E000D00300207C
:1057A000680200203C3C3C00000F0308636170610C
:1057B0006369747900000000014611480068FF2801
:1057C0001BD0104800780F4A527840EA02200D4A58
:1057D000927840EA02400B4AD27840EA02600A4AD4
:1057E00010600848007910710648407950710548EA
:1057F00080799071FF20024A1060002070470000FD
:10580000940100209C010020B001002070B50646E4
:105810000C461546012C06D1012D04D101200D495D
:105820000870002070BD24B91DB93046FFF7C4FFD1
:105830000DE064B9032D0AD1012007490870032146
:10584000304625F066F8054908600020EAE70220A6
:10585000E8E70000A4010020A5010020A801002025
:1058600070B504460D468121204624F0FFF903213E
:10587000204624F0FBF98221204624F0F7F900208D
:1058800070BD000070B504460D46094A002120464F
:1058900024F046FA064AD21F0021204624F040FA9E
:1058A000034A173A0021204624F03AFA002070BD3E
:1058B000F40100202DE9F04105460C463A26444FFC
:1058C000207800F0600000284AD020287BD1607842
:1058D000042815D007DC78B101280ED002280DD09D
:1058E00003283AD10BE020280BD0212813D02228FE
:1058F00031D0232831D12FE030E02FE02EE02DE011
:105900002CE0607833490860E388334A0021284658
:1059100024F080FB22E0314800782F4908702F489E
:105920000088000A48702D480068000C88702B48D9
:105930000068000EC870294800790871274840792E
:105940004871264880798871E3880A468021284674
:1059500024F0D6FB02E001E000E000BF00BF33E02E
:105960006078062816D00A2802D00B2828D106E035
:1059700001231B4A8021284624F0C2FB21E0A078A5
:1059800018B9A0781649086003E02146284624F09B
:10599000D5F816E060882121B1EB202F08D1E088EE
:1059A0003A2801DD3A2000E0E0880646084F093732
:1059B00033463A468021284624F0A2FB01E002E06B
:1059C00000BF00BF00BF00BF00BF0020BDE8F081E6
:1059D000C1010020940100209C010020B0010020A2
:1059E00098010020F8B505460E462C46206B10B1F4
:1059F000206B007818B9606B08B90120F8BD606BA6
:105A000058B128461CF075FD0746104909688847BB
:105A1000616B884201D30020F0E7206B98B1002031
:105A200000900AE069460A4A206B126890470746D0
:105A3000B74201D10120E1E700BF206B0099405C33
:105A40000028EFD1DAE70120D8E700006803002042
:105A5000580300202DE9FF4F8FB00F46209DF878A6
:105A600000F0010008B1FA4800E0FA480E90F8781A
:105A700000F0010008B1F84800E0F8480D90F8780F
:105A800000F0010008B9F44800E0F4480C9001204F
:105A90000B90B5E000220B9200206A88B5F804C094
:105AA000A2EB0C0211B200261AE006EB860CEA68A3
:105AB00002EB8C02127C02F0010242B906EB860C6A
:105AC000EA6802EB8C029289024410B207E006EB0E
:105AD000860CEA6802EB8C0212898A1A11B2761CD3
