:020000040800F2
:1000000068B50020B902000849210008C11F000896
:10001000452100083B1F0008D5250008000000000E
:10002000000000000000000000000000C1220008E5
:100030003F1F0008000000004B210008D10200080B
:10004000D3020008D3020008D3020008D30200083C
:10005000D3020008D3020008D3020008D30200082C
:10006000D3020008D3020008D3020008D30200081C
:10007000D3020008D3020008D3020008D30200080C
:10008000D3020008D3020008D3020008D3020008FC
:10009000CD250008D3020008D3020008D3020008CF
:1000A000D3020008D3020008D3020008D3020008DC
:1000B0007D240008D3020008D3020008D302000800
:1000C000D3020008D3020008D3020008D3020008BC
:1000D000D3020008D302000889250008D3020008D3
:1000E000D3020008D3020008D3020008D30200089C
:1000F000D3020008D3020008D3020008D30200088C
:10010000D3020008D3020008D3020008D30200087B
:10011000D3020008D3020008D3020008D30200086B
:10012000D3020008D3020008D3020008D30200085B
:1001300000F002F800F0B0F80AA090E8000C824449
:100140008344AAF10107DA4501D100F0A5F8AFF226
:10015000090EBAE80F0013F0010F18BFFB1A43F0A5
:100160000103184760810300808103000A444FF0B7
:10017000000C10F8013B13F0070408BF10F8014B06
:100180001D1108BF10F8015B641E05D010F8016B4B
:10019000641E01F8016BF9D113F0080F1EBF10F8AF
:1001A000014BAD1C0C1B09D16D1E58BF01F801CBD2
:1001B000FAD505E014F8016B01F8016B6D1EF9D555
:1001C0009142D6D37047000000230024002500266A
:1001D000103A28BF78C1FBD8520728BF30C148BFAA
:1001E0000B6070476E2900F06F84702900F0DF8784
:1001F00066292EF0308765292EF02D8767292EF08D
:100200002A8761292EF0298703681B0A28BF41F03D
:100210008001692900F07C81642900F079817529C9
:1002200000F076816F2900F06C87782900F0AB87A9
:10023000E92900F00787E42900F00487F52900F098
:100240000187EF2900F06987F82900F0AA87036881
:10025000DB0928BF41F08001632900F088867329FB
:1002600000F08D86E32901F0BF81F32901F0C481FC
:10027000002070471FB500F0A5FF040000200021FA
:100280002DF002FF401C6060002000212DF0E6FEF2
:10029000E0601FBD10B510BD01F048FA1146FFF730
:1002A000E9FF25F00DFE01F06FFA03B4FFF7F2FF4E
:1002B00003BC01F073FA0000094880470948004771
:1002C000FEE7FEE7FEE7FEE7FEE7FEE7FEE7FEE706
:1002D000FEE7FEE704480549054A064B7047000063
:1002E000A9230008310100086875002068B50020C6
:1002F000689500206895002053EA020C00F06980A0
:100300002DE9F04B4FF00006002B1FBFB3FA83F529
:1003100003FA05F424FA05F65E4012BF1643B2FA5A
:1003200082F502FA05F4C5F120051EBF22FA05FC8C
:1003300044EA0C04203556EA044C4FEA144418BF32
:10034000641C4FF000084FF00009904271EB030C61
:1003500039D3002919BFB1FA81F701FA07F6B0FACB
:1003600080F700FA07F6C7F120071EBF20FA07FC46
:1003700046EA0C062037B6FBF4FCA7EB0507103F56
:1003800007F01F0BCBF120060CFA0BFB2CFA06F63C
:1003900044BFB3460026202FA4BF5E464FF0000B9B
:1003A0005BEA060C08BF4FF0010B19EB0B09ABFB26
:1003B000027C48EB0608C01B06FB02CC0BFB03CCFF
:1003C00071EB0C01C1E70B46024641464846BDE8C9
:1003D000F08B13B54FF000004FF00001AFF3008039
:1003E000BDE81C40704700001CB50C46064B7B4422
:1003F00069460090204600F090FD044600206946C2
:1004000000F09EFD20461CBD4F0B00000FB41CB534
:10041000084B06AA7B4469460090059800F07DFDD4
:1004200004460020694600F08BFD20461CBC5DF8A8
:1004300014FB0000290B00000FB47CB50C0009AAC6
:10044000009001D02044401E084B7B446946019037
:10045000089800F062FD05461CB10020694600F0D6
:100460006FFD28467CBC5DF814FB0000FD0A00000F
:1004700070B5044685690068C10601D5302600E0E4
:100480002026C00707D070BDD4E90121304690472F
:10049000206A401C20626D1EF6D570BD70B5044602
:1004A00085690078C00707D170BDD4E901212020FB
:1004B0009047206A401C20626D1EF6D570BD70B555
:1004C0000C460546012A05D02878800600D5EA6941
:1004D000002302E0012305E05B1C934202D2E05CB2
:1004E0000028F9D1A869E618C01AA861286A18443A
:1004F00028622846FFF7BCFF04E0D5E9012114F883
:10050000010B9047B442F8D32846FFF7C7FF70BDF0
:100510002DE9F0410646002410687529314616A5DC
:1005200010D000F066FA002802DA404213A507E076
:1005300031688A0701D512A502E0490704D511A543
:10054000012401E000F05EFA00210A2206F12407EE
:1005500009E0B0FBF2FCB0FBF2F302FB1C00303010
:1005600078541846491C0028F3D123462A463046C1
:10057000BDE8F04100F04FBA000000002D0000007F
:100580002B000000200000002DE9F05F89460446A2
:100590004FF0000ADFF874B1FB44C0F820A02046F9
:1005A000E1688847002874D0252806D0D4E90121C5
:1005B0009047206A401C2062F1E700265F462046F3
:1005C000E16888472028054607DB312D05D27819D8
:1005D00010F8200C08B10643F1E7B00701D526F06A
:1005E0000406C4F81CA00027C4F818A02A2D09D0BE
:1005F000284602F023F838B304EB8708303DC8F8EA
:10060000185019E059F8041B204604EB8702916149
:10061000E1688847012F054618D1E069002820DAF3
:1006200026F020061DE0D8F8180000EB800005EB4E
:1006300040003038C8F818002046E1688847054671
:1006400001F0FCFF0028EED1012F0AD02E2D08D199
:100650002046E16888477F1C0546022F46F02006A9
:10066000C4DBA069002803DA404246F00106A0611D
:10067000F00701D026F010066C2D0BD0682D09D0A4
:100680004C2D39D06A2D35D0742D35D07A2D33D0FC
:1006900016E038E0E1682F4620468847B842054614
:1006A00009D16C2F26D04FF48060E16806432046C4
:1006B0008847054604E06C2F1AD04FF4807006433B
:1006C0000DB3A5F14100192802D8203546F4006683
:1006D0004A462946204626604E46FFF783FD80B1F4
:1006E00001280BD0F61D26F0070000F1080956E797
:1006F0004020E4E78020D8E70020D6E706F104098F
:100700004DE7284652E7206ABDE8F09F6478030071
:1007100040EA0103024630B59B0710D14FF0013487
:1007200000E008C208C91D1B9D4315EAC41FF8D08C
:1007300013F0FF0102F8011B0DD01B0AF8E711F8B6
:10074000013B002B02F8013B05D011F8013B002BC7
:1007500002F8013BF3D130BD10B5431C02E010F8A4
:10076000011B71B18107FAD14FF0013202C88C1A16
:100770008C4314EAC211F9D0C01A0A0603D0C01E75
:1007800010BDC01A10BD0A0401D0801E10BD0902A0
:10079000FCD0401E10BD032A40F2308010F0030C44
:1007A00000F0158011F8013BBCF1020F624498BFC4
:1007B00011F801CB00F8013B38BF11F8013BA2F161
:1007C000040298BF00F801CB38BF00F8013B11F0DC
:1007D000030300F02580083AC0F0088051F8043B7C
:1007E000083A51F804CBA0E80810F5E7121D5CBFE9
:1007F00051F8043B40F8043BAFF30080D20724BF1C
:1008000011F8013B11F801CB48BF11F8012B24BFAF
:1008100000F8013B00F801CB48BF00F8012B7047FE
:1008200010B5203AC0F00B80B1E81850203AA0E88B
:100830001850B1E81850A0E81850BFF4F5AF5FEABF
:10084000027C24BFB1E81850A0E8185044BF18C972
:1008500018C0BDE810405FEA827C24BF51F8043B19
:1008600040F8043B08BF7047D20728BF31F8023B6D
:1008700048BF11F8012B28BF20F8023B48BF00F801
:10088000012B70474FF000020429C0F0128010F0D5
:10089000030C00F01B80CCF1040CBCF1020F18BF5C
:1008A00000F8012BA8BF20F8022BA1EB0C0100F0EF
:1008B0000DB85FEAC17C24BF00F8012B00F8012BC2
:1008C00048BF00F8012B70474FF0000200B51346F7
:1008D00094469646203922BFA0E80C50A0E80C5060
:1008E000B1F12001BFF4F7AF090728BFA0E80C5011
:1008F00048BF0CC05DF804EB890028BF40F8042B0A
:1009000008BF704748BF20F8022B11F0804F18BF76
:1009100000F8012B704710B5044610F0030F08BF14
:1009200011F0030F40F015804FF0013E121FC0F28E
:100930000E8051F8043BA3EB0E0C2CEA030C1CEACE
:10094000CE1C08BF40F8043BF0D0A1F1040102F135
:100950000402521E08DB11F8013B002B00F8013B9A
:10096000F7D11146FFF78EFF204610BD4FF0013C36
:1009700050F8042B51F8043B9A4221D1A2EB0C030E
:10098000934313EACC1317D150F8042B51F8043BCE
:100990009A4215D1A2EB0C03934313EACC130BD16B
:1009A00050F8042B51F8043B9A4209D1A2EB0C03F6
:1009B000934313EACC13DBD04FF00000704700BF25
:1009C000D01A01BAB1FA81F101F0180122FA01F04E
:1009D000CB40C1F12001DBB2C0B2C01A2CFA01F346
:1009E000D11A914311EAC311E6D17047704770479D
:1009F000704709684A0501D540B27047C905FCD562
:100A000000B2704709684A0501D5C0B27047C905F0
:100A1000FCD580B270472DE9F0470D4699469246C5
:100A2000044600F124080168880604D5E06921F035
:100A30001001216000E00120A84201DD471B00E019
:100A40000027A1697A1902EB0900081AA061207831
:100A5000C00602D42046FFF70BFD002608E0D4E9CB
:100A600001211AF806009047206A401C761C20627B
:100A70004E45F4DB2078C0060AD52046FFF7F8FC87
:100A800006E0D4E9012130209047206A401C206212
:100A9000381EA7F10107F4DC07E0D4E9012118F8BA
:100AA00005009047206A401C2062281EA5F1010520
:100AB000F3DC2046FFF7F2FC2078000602D5022086
:100AC000BDE8F0870120FBE711680268006A530562
:100AD00001D508700AE0D30501D5088006E01306A9
:100AE00003D5C217C1E9000200E008600120704789
:100AF00070472DE9FF4F0C461E464FF0FF378BB075
:100B0000D2E90001DDF860800A908A46C1F30A55F7
:100B100005B93D46002108464FF00000BAF1000F2C
:100B200000F4400005DA00EB80004FF4400101EAD8
:100B300050004FEA9059B9F1010F00DDB9460A980B
:100B400050EA4A000ED044F61050A5F2FF35454356
:100B50002F14B8F1000F1ED07542291E1EDDC9F1F9
:100B600000021CE0B8F1010F4FF0000001D030216D
:100B700003E0F24305E02154401CB042FBDB304669
:100B80000022002121540B99C1F80880C1E90020FE
:100B90000FB0BDE8F08FBD1B6D1CDEE74A4600DAE2
:100BA000694206A800F02CFD06AB93E8070003ABF2
:100BB00083E8070050460A9900F0F7FD8DE807002A
:100BC000A0F500501F3800900398002D0ADD42F276
:100BD0001F014A460844002303A90390684601F018
:100BE00060F809E0A0F500504A461F38002303A929
:100BF0000390684601F06AF88DE807000004000CD5
:100C000003D04FF0FF30410800E01046B8F1000F6C
:100C100003D00022009215461EE0751E05D400F098
:100C2000D5FA303262556D1EF9D5B346012208431C
:100C300002D000227F1C04E02078302801D100225D
:100C40007F1E002A099784D01DE0112D07DA00F0DD
:100C5000BDFA303262556D1C50EA0102F5D10843ED
:100C600002D00098C8B10EE00021681E05E0235CA8
:100C7000625C63542254401E491C8142F7DBAB4640
:100C8000A81B401E0990002004F80B000B98099A3D
:100C9000C0F80880C0E9002B7AE711264FF0000861
:100CA00057E72DE9F04F88460446D21D22F0070190
:100CB00091B0D1E90001CDE90A0101F08DFC0246B5
:100CC0000B98C00F01D02D2007E02068810701D5C7
:100CD0002B2002E0202101EAC000032A099001D064
:100CE000072A05DB03464146204600F033FC0BE1B2
:100CF0002078800601D5E06900E00620B8F1650F94
:100D0000814606D0B8F1660F18D0B8F1670F70D1E0
:100D100031E00020B9F1110F009001DB112301E057
:100D200009F101030AAA01A90CA8FFF7E2FEDDE917
:100D30000C70002609F10105834647E001204B466F
:100D400000904FF000470AAA01A90CA8FFF7D1FEB6
:100D5000DDE90DB00C995D46002610B909F10100DE
:100D60000D18B9EB050003D4C0F1FF3609F10105F8
:100D7000A5EB09002BE0B9F1010F01DA4FF00109F1
:100D80000020B9F1110F0090484601DD112300E069
:100D900003460AAA01A90CA8FFF7ABFEDDE90C7017
:100DA0004D4600268346207800070AD4AB4500DA7A
:100DB0005D4601A8012D04DD411911F8011C3029FF
:100DC00007D04F4502DA17F1040F04DA01208246FA
:100DD0000FE06D1EEEE7002F02DCED1B3E4403E04A
:100DE000781CA84200DD7D1CB81B00F1010A4FF001
:100DF00000472078000703D4AA4501DB4FF0FF3AF3
:100E00000021B7F1004F0DF143088DF8431024D0B5
:100E100002202B23002F01DA7F422D230A21021EFC
:100E2000A0F1010000DC5FB197FBF1FC97FBF1F250
:100E300001FB1C7C17460CF1300C08F801CDEEE7E5
:100E4000A8F1010003702188090501D5452100E0C2
:100E50006521A0F1010800F8011C09980FA9A1EB78
:100E60000807FF1D00B10120411901EBEA70A169DB
:100E70003844081A401EA0612078C00602D42046DB
:100E8000FFF7F6FA099828B1D4E901219047206AC2
:100E9000401C20622078C00622D52046FFF7E8FAE1
:100EA0001EE0002E04DBB34502DD01A8805D00E0FA
:100EB0003020D4E901219047206A401C2062761C32
:100EC000AAF101005FEA000A0AD100F07BF9C068CC
:100ED0000168405CD4E901219047206A401C2062EF
:100EE000281EA5F10105DCDC07E0D4E9012118F892
:100EF000010B9047206A401C2062381EA7F10107B1
:100F0000F3DC2046FFF7CAFA032011B041E60000E7
:100F100001694A1C02610878704700B58FB0CDE9BD
:100F200001310021059105497944CDE903101146AD
:100F30006846FFF729FB0FB000BD0000E5FFFFFF8B
:100F40000A6802F8010B0A607047D1E900239A424F
:100F500002D2531C0B601070704710B5436913B177
:100F6000AFF3008001E0FFF7AAFA012010BD12786C
:100F700000F124010A7000224A700122EDE7116895
:100F80004FF0FF32E9E700002DE9FF5F15468A4682
:100F90000446DFF8AC80F8440027D8E900103E464C
:100FA000CDE9001010E03AF816106A4602A800F0E9
:100FB00099FB411C07D02178890603D5E2693918CD
:100FC00091420DD80744761C2078800602D5E0694E
:100FD000B84205DDAE42E6DB3AF816000028E2D161
:100FE000A069C01BA0612046FFF742FAD8E90010B3
:100FF000CDE90010002017E03AF818106A4602A860
:1010000000F070FBB0F1FF3F81460BD000250DF1E1
:10101000080B05E0D4E901211BF8050090476D1C81
:101020004D45F7D308F10100B0428046E4DB206A69
:10103000384420622046FFF731FABDE8FF9F0000E8
:101040007A6E03002DE9F0418046D21D22F007029E
:101050000025D2E90002F52915A614D0011E72F16F
:10106000000106DA0023D0EB030063EB020211A6B5
:1010700008E0D8F800108B0701D50FA602E0490759
:1010800001D50EA601251146002408F1240704E02D
:1010900000F09CF830323A55641C50EA0102F7D156
:1010A0002B46324621464046BDE8F041FFF7B3BC2F
:1010B000000000002D0000002B00000020000000B8
:1010C00030B4002100F1240408E002F00705D20842
:1010D000303542EA4372DB086554491C52EA030585
:1010E000F3D10468002310A2250707D5A40600D475
:1010F00021B1C46901230DA2641EC46130BCFFF795
:101100008ABC10B5044621461068FFF77BFC0246F6
:101110002046BDE810400023D2E7D21D22F007018F
:10112000D1E90023CCE700000000000030000000FF
:10113000F0B40D460188090502D5214C7C4402E03B
:101140001F4C7C440E34002100F1240608E002F01C
:101150000F071209E75D42EA03721B097754491C25
:1011600052EA0307F3D102780023120704D5702D49
:1011700006D009B1022311342246F0BCFFF74BBC64
:1011800001231034F8E770B504460D462146106877
:10119000FFF738FC024629462046BDE87040002390
:1011A000C6E7D21D22F00703D3E90023C0E7036896
:1011B000126843F0200303600823C3610023B7E7EC
:1011C000DC6C0300004870472875002030B5B0F192
:1011D0000A024FEA900E71F100034EEA817EB0EBF5
:1011E0000E0061EB91014FEA101E4EEA017E10EBFA
:1011F0000E0041EB11114FEA102E4EEA016E10EB7A
:101200000E0041EB11214FEA104E4EEA014E10EB59
:101210000E0041EB1141401841F100014FEAD000AE
:1012200040EA41704FEAD10110EB80054FEA81049A
:1012300044EA907444EB01046D1944EB0404521B1E
:10124000A3414FF0000348BF0A3200D530BD401C17
:1012500041F1000130BD00002DE9F04F04460D467C
:10126000D21D22F0070089B0D0E9009748463946E0
:1012700001F0B2F90246F80F01D02D2307E02068F3
:10128000810701D52B2302E0202101EAC0038DF85C
:1012900020300BB1012000E00020032A824601D05B
:1012A000072A04DB2946204600F054F93FE1207864
:1012B000800601D40D2500E0E569C7F30A560D2D1F
:1012C00049DA00214FEA175B08464FF00000002F73
:1012D00000F4400007DA00EB80004FF4400100EB1F
:1012E000D07001EA60008115012901DD4FF0FF3166
:1012F00000224FEA850CBCF1180F06D31346ACF15F
:1013000018004FF08052C24003E04FF4801323FADC
:101310000CF30CF10C0CBCF1200F04D3ACF1200C3D
:1013200009FA0CF001E007FA0CF000294FF0004830
:1013300001DD18B90FE00ED140450CD319EB0209BD
:101340005F4121B9404502D19F4329EA0209BBEB25
:10135000175F00D0761C2088000502D57B487844B2
:1013600002E07A487844193808AA302302F80A3093
:10137000037C0AF10101002E0AF1020A53546A4665
:1013800002DC4FF0300101E04FF031014FF0010875
:101390008DF8001002D0A6F2FF3603E059EA4701AB
:1013A00000D06B4E002D02DC2178090704D54FF0E8
:1013B00002082E218DF80110C44600210BE0C7F36E
:1013C00003433F01C35C491C6D1E02F80830052928
:1013D00008F1010801DA002DF1DC00210CE000EB3E
:1013E0001973491C1B786D1E082902F808304FEA52
:1013F000091908F1010801DA002DF0DC21688B06DB
:1014000002D516E0A8F10108E04505DD02EB08036E
:1014100013F8013C302BF5D0B8F1000F09DD02EBD9
:10142000080313F8013C2E2B03D1090701D4A8F1BE
:101430000108002D05DD3E2102F808106D1E08F19F
:101440000108407C002E02F8080008F1010804DAC7
:101450002D20764202F8080002E02B2002F8080056
:101460000A214FF47A70864208F101080BDB96FBE3
:10147000F0F3303302F8083096FBF0F308F101087E
:1014800000FB136601E0642E0CDB642096FBF0F396
:10149000303302F8083096FBF0F308F1010800FB46
:1014A000136601E00A2E06DB96FBF1F0303002F8FD
:1014B000080008F1010896FBF1F001FB10603030E4
:1014C00002F80800A16908F1010808EB050202EB27
:1014D0000A00081AA0612078C00602D42046FEF750
:1014E000C7FF216A08AE01EB0A00206204E0D4E9DC
:1014F000012116F8010B9047BAF1010AF7D22078C2
:10150000C00602D52046FEF7B3FF6E4609E016F886
:10151000010B3E280FD0D4E901219047206A401CDE
:101520002062B8F10108F2D22046FEF7B7FF09B0F9
:101530000320BDE8F08F206A2844206203E0D4E94C
:101540000121302090476D1EEBD3F8E7F56A0300C8
:1015500002FCFFFF2DE9F0411F4604460326016807
:10156000072A01F4006004DB08B116A505E016A502
:1015700003E008B115A500E015A521F010002060DA
:10158000A069C01EA0610FB1401EA0612046FEF7F9
:101590006FFF4FB1D4E9012138469047206A401CC3
:1015A0002062C01C206206E0206AFAE7D4E901212B
:1015B00015F8010B9047761EF8D22046FEF76EFF15
:1015C000BDE8F0814E414E006E616E00494E46000E
:1015D000696E660010B5436913B1AFF3008001E096
:1015E000FFF7D2FC012010BD128800F12401828493
:1015F0000022C2840122EDE711684FF0FF32E9E7D3
:101600002DE9F047814616468AB0354878440DC822
:101610008DE80D0032487844801C03AC0DC884E886
:101620000D0041F69B300844372190FBF1F290FB0E
:10163000F1F5A5F1800501FB12041B3C02D56442C3
:10164000012000E00020DFF898A080460027FA443F
:10165000AAF1BE0A0EE0E0070AD03246684607EB60
:10166000470101230AEB810100F030FB8DE8070000
:1016700064107F1C002CEED1194F7F44AE3F19E05F
:10168000E80715D007EB04100DF1180A90E80E00DA
:101690008AE80E00C068F04201D1981908903246DD
:1016A000012306A903A800F011FB03AB83E80700A0
:1016B0006D10641C002DE3D14FF0010332466946E2
:1016C000B8F1000F03A802D000F0EBFA01E000F03F
:1016D000FDFAC9E90001C9F808200AB0BDE8F087A1
:1016E000D868030070B516460C46054600F044F86D
:1016F000036893F80101012806D0FF2C0FD8185D6C
:1017000068B101202C7070BDD3F807013246214624
:1017100003F2071303442846BDE8704018474FF012
:10172000FF3070BD00487047087500207546FFF710
:10173000F9FFAE4605006946534620F0070085468E
:1017400018B020B5FEF7C6FDBDE820404FF00006FA
:101750004FF000074FF000084FF0000B21F0070199
:10176000AC46ACE8C009ACE8C009ACE8C009ACE8DC
:10177000C0098D467047000010B5FFF723FD001D1E
:1017800010BD00BF05C9020010B50446AFF30080CC
:101790002046BDE81040FEF788BD00000149182032
:1017A000ABBEFEE72600020070475FEA400C08BFB0
:1017B00091F0000F4FEA8C234FEAC12243EA5151C6
:1017C0004FEA1C5018BF00F5F0404FEA300018BF38
:1017D00041F000415FEA6C5C00F02980BCF1FF3F02
:1017E00008BF40F080407047130C06BF12044FF052
:1017F000100C4FF0000C130E04BF12020CF1080C79
:10180000130F04BF12010CF1040C930F04BF9200DC
:101810000CF1020CD30F04BF52000CF1010C114665
:101820004FF00002A0F11F00A0EB0C00704711F078
:10183000004F08BF704731F000413FF4D5AF0B0CAB
:1018400006BF09044FF0100C4FF0000C0B0E04BF44
:1018500009020CF1080C0B0F04BF09010CF1040C78
:101860008B0F04BF89000CF1020CCB0F04BF4900A1
:101870000CF1010CCCF12003A0EB0C0022FA03F3D5
:1018800002FA0CF241EA030100F10100704720F076
:101890007F4C80EA030023F07F47ACEB070303F59E
:1018A0007C5300F0004003F1FF032DE980494FEA2B
:1018B000154B09B44FEA144325EA0B4E24EA0348BA
:1018C0000FF2042606EB132749083E785FEA32023E
:1018D00003FB0667C7F5000707FB06F64FEA543718
:1018E0004FEAD64606F1020607FB066CCCF1005C17
:1018F0004FEA1C472CEA074C07FB06F40CFB06F5E5
:1019000004EB15464FEA961634BF00204FF0004016
:101910004FEAD13706FB07FC4FEA1C4C0CFB0BF7D8
:10192000D21B03FB0CF761EB07010CFB0EF7B0EBCE
:10193000074072EB17420CFB08F734BFA2EB0742DB
:10194000B2EB074261EB17414FEA0C444FEA9107B3
:1019500006FB07FC4FEA1C4C0CFB0BF7B0EBC74037
:1019600072EB573203FB0CF734BFA2EBC742B2EB6A
:10197000C74261EB57310CFB0EF7B0EBC70072EBBF
:1019800057720CFB08F734BFA2EBC702B2EBC702D9
:1019900061EB5771039F4FEA816141EA921104EBB9
:1019A000CC044FEAD1374FEA826206FB07FC42EAD9
:1019B00090124FEA80604FEA1C4C0CFB0BF7D21BD5
:1019C00003FB0CF761EB07010CFB0EF7B0EB0740D4
:1019D00072EB17420CFB08F734BFA2EB0742B2EBE5
:1019E000074261EB17414FEA8C554FEA910704EB30
:1019F0009C2406FB07FC4FEA1C4C0CFB0BF7B0EBDE
:101A0000C74072EB573203FB0CF734BFA2EBC7425F
:101A1000B2EBC74261EB57310CFB0EF7B0EBC700DE
:101A200072EB57720CFB08F734BFA2EBC702B2EBA4
:101A3000C70261EB577115EB4C254FEA816141EA12
:101A400092114FEA82624FEAD13742EA901206FBC6
:101A500007FC44F100044FEA80604FEA1C4C0CFB89
:101A60000BF7D21B03FB0CF761EB07010CFB0EF726
:101A7000B0EB074072EB17420CFB08F734BFA2EB48
:101A80000742B2EB074261EB174115EB1C154FEA19
:101A9000813141EA92414FEA823242EA90424FEA72
:101AA00080304FEA0C7644F1000448EA03434EEAE2
:101AB0000B484FF0000EB2EB080C71EB030724BF8C
:101AC000624639464EEB0E0E4FF0000B00185241A5
:101AD00049414BEB0B0BB2EB080C71EB03077BF1AD
:101AE000000B24BF624639464EEB0E0E4FF0000B42
:101AF0000018524149414BEB0B0BB2EB080C71EB58
:101B000003077BF1000B24BF624639464EEB0E0EF5
:101B100051EA020718BF46F0010616EB0E7655F1A2
:101B2000000254F1000103D5BDE88901BDE8008839
:101B3000BDE88901BDE80048B619524141EB0101F9
:101B4000A3F10103704780807F7E7D7C7B7A79786A
:101B5000777676757473727171706F6E6E6D6C6C72
:101B60006B6A6A6968686766666564646363626114
:101B70006160605F5F5E5E5D5D5C5C5B5B5A5A5995
:101B80005958585757565655555554545353525201
:101B90005251515050504F4F4F4E4E4D4D4D4C4C59
:101BA0004C4B4B4B4A4A4A494949484848474747A2
:101BB00047464646454545444444444343434342DF
:101BC000424242414141002B9C4630D477002BD009
:101BD0001CB54FEA370703B44FF010004FF0100167
:101BE000BAF1000F06D0BCF1000FDCBF40F00800D6
:101BF00040F008014FF000000FBCBDE810400BF1B1
:101C0000010BBBF1010F08BF5FEA170722BF12F1FA
:101C1000010211F101014FF0004143F1000300F016
:101C2000004043EA00007047F9D35708D0E746EA7E
:101C3000064613F1400F4FEA16461FDD13F1200F41
:101C4000DFBF16430A46002120335B42BED0C3F1FA
:101C5000200746EA064602FA07F74FEA164646EA22
:101C60000706C3F1200722FA03F201FA07F721FA67
:101C700003F14FF0000342EA0702A7E746EA020633
:101C800046EA06464FEA164646EA0106BCBF46EA61
:101C90000646360C4FF000034FF000024FF00001F3
:101CA00094E72DE9804C9A46934670B491E8380049
:101CB00007C831EA400C48BF34EA430C03D5FFF7AC
:101CC000E6FDFFF780FFF0BCBDE8008C2DE9804CFD
:101CD0009A46934670B491E8380007C810F0804FD8
:101CE00008BF13F0804F03D100F005F8FFF76BFF3A
:101CF000F0BCBDE8008C20F07F4780EA030023F0B1
:101D00007F4C07EB0C03A3F57C5300F00040A3F1DC
:101D1000FE0392F0000F00F0B38095F0000F00F08A
:101D200077802DE901494FEA11404FEA144621EA34
:101D3000004800FB06FC24EA064708FB06F607FB02
:101D400008F800FB07F718EB06484CEB164C4FEA77
:101D5000124B18EB07484FEA15464CEB174022EAA6
:101D60000B4E0BFB06FC25EA06470EFB06F607FBAF
:101D70000EFE0BFB07F71EEB064E4CEB164C4FF01E
:101D800000061EEB074E4CEB174B18EB0B0840F10F
:101D9000000018EB0E0B58EB000840F100008F1A02
:101DA0004FF000013CBFC943661B14BFB5EB040CE8
:101DB00000213CBFC943F61B4FEA17444EEA8E0E82
:101DC00027EA04454FEA1C4704FB07622CEA074C4C
:101DD00005FB07F70CFB05F604FB0CFC16EB0746AE
:101DE00042EB174216EB0C4642EB1C421BEB06067D
:101DF00058EB0202414146EA9E0601D5BDE8018941
:101E0000B619524141EB0101A3F10103BDE801897B
:101E10004FEA14454FEA114724EA054621EA074CE8
:101E200005FB07F406FB07F70CFB06F105FB0CFCB2
:101E300011EB074144EB17444FEA124711EB0C41F9
:101E400044EB1C4422EA074C05FB07F206FB07F7AC
:101E50000CFB06F605FB0CFC16EB074642EB1742A3
:101E600016EB0C4642EB1C456A1854F1000148BFC2
:101E70007047B619524141EB0101A3F101037047CC
:101E800095F0000F37D04FEA11424FEA144721EA8C
:101E9000024624EA074C02FB07F106FB07F70CFB9E
:101EA00006F402FB0CFC14EB074441EB17414FEA2C
:101EB000154714EB0C4441EB1C4125EA074C02FB8F
:101EC00007F506FB07F70CFB06F602FB0CFC16EB0E
:101ED000074645EB174516EB0C4645EB1C4212191D
:101EE00051F1000148BF7047B619524141EB010161
:101EF000A3F1010370474FEA14454FEA114724EA62
:101F0000054621EA074C05FB07F106FB07F70CFB2A
:101F100006F24FF0000605FB0CFC12EB074241EB0A
:101F2000174112EB0C4251EB1C4148BF704792180D
:101F300041EB0101A3F10103704700BFFEE77047C9
:101F400070B50446802000F085F806462CF0FAFEB5
:101F5000054602492CF03EFF206070BD0000204085
:101F600070B50446802000F03AF806462CF0D2FE08
:101F7000054602492CF02EFF206070BDCDCCCC3D33
:101F800070B50446802000F01DF806462CF0C2FE15
:101F9000054602492CF01EFF206070BD0000204065
:101FA00070B50446802000F027F806462CF0CAFEE3
:101FB000054602492CF00EFF206070BD0000A03FD6
:101FC00000BFFEE770B5044600250121204600F061
:101FD000A7F8204600F067F805B2284670BD70B536
:101FE000044600250421204600F09AF8204600F01F
:101FF0005AF805B2284670BD70B505460024022186
:10200000284600F08DF8284600F04DF8044620469A
:1020100070BD000070B504460025FF21204600F089
:102020007FF8204600F03FF805460148456170BD45
:102030000004002070B504460025FE21204600F073
:102040006FF8204600F02FF805460148856170BD05
:102050000004002070B5044600250321204600F04E
:102060005FF8204600F01FF805B2A8B270BD10B5A9
:102070000FF0DAF94FF400420021802000F02EF832
:1020800044F227320021802000F028F84FF420622B
:102090000521802000F022F88020FFF7BBFF802080
:1020A000FFF7C8FF10BD70B5054600240FF074FAA5
:1020B000691CC8B20FF03EFA0FF0AEFA01200FF023
:1020C0000BFA04464FF6FF7000EA042400200FF0DC
:1020D00003FA04430FF07EFA204670BD2DE9F0416B
:1020E00006460D46144600270FF056FA30460FF00C
:1020F00021FA0FF091FA28460FF01CFA0FF08CFA33
:10210000271238460FF016FA0FF086FAE7B2384673
:102110000FF010FA0FF080FA0FF05CFABDE8F081D2
:1021200070B505460C460FF037FA28460FF002FA54
:102130000FF072FA20460FF0FDF90FF06DFA0FF074
:1021400049FA70BD00BFFEE77047704770B503469F
:10215000002000E0401C00EB40040E4D55F82440E8
:102160000CB10528F6D3052800D38AB100EB400452
:10217000084D45F824304C1C00EB4005054E06EB9D
:1021800085056C6000EB4004354605EB8404A260D5
:1021900070BD00006004002010B5002420E004EBB6
:1021A0004401114A52F82110C9B104EB440102EB79
:1021B0008101496899B90D490C6004EB44020A4B4E
:1021C00053F82210884704EB4401074A02EB8101CF
:1021D000896804EB4402044B03EB82025160641CE7
:1021E000052CDCD310BD000060040020200000207E
:1021F00000F0800121B14FF400512E4A116004E03B
:102200004FF400512B4A121D116000F0400121B122
:102210004FF48041274A116004E04FF48041254A81
:10222000121D116000F0200121B14FF40041214A3C
:10223000116004E04FF400411E4A121D116000F0CD
:10224000100119B140211C4A116102E040211A4AD3
:10225000516100F0080119B18021174A116102E0B3
:102260008021154A516100F0040121B14FF48071C1
:10227000114A116103E04FF480710F4A516100F07F
:10228000020121B14FF400710B4A116103E04FF4D8
:102290000071094A516100F0010121B14FF48071D0
:1022A000064A116004E04FF48071044A121D116067
:1022B00070470000100C0140001001401008014060
:1022C000704700002DE9FF430FF2BC09D9E901C8AE
:1022D000D9F80070D9F80C90CDE901C8CDF80C9070
:1022E00000972D4F7F68C7F3810626B1012E08D0D5
:1022F000022E33D10BE0294FDFF8A4C0CCF80070D8
:1023000032E0264FDFF898C0CCF800702CE0224F66
:102310007F6807F480320AB9224908E01F491E4F3E
:102320007F6807F40033B3F5003F00D149101A4F1E
:102330007F68C7F38340184F7F6807F000670FB1CD
:1023400040F010000F2801D3401C00E0801C01FB6E
:1023500000F7DFF84CC0CCF8007005E00F4FDFF855
:1023600040C0CCF8007000BF00BF0B4F7F68C7F3C0
:1023700003141DF804500A4F3F68EF40DFF820C0F7
:10238000CCF80070BDE8FF830000000000000000F2
:1023900001020304060708090010024000127A0037
:1023A000F400002000093D0008B53048006840F006
:1023B00001002E49086000BF2C48006800F00200B0
:1023C0000028F9D000BF2948406840F08000274924
:1023D00048600020009002E00098401C00900098A7
:1023E0005028F9D32148406840F090001F494860C8
:1023F0000020009002E00098401C009000985028B7
:10240000F9D300BF1948406820F00300174948601D
:1024100008460068164908401449086008464068A4
:1024200014490840114948600846006810490840AE
:102430000E4908600846006820F4802008600846BD
:1024400040680D4908400949486008460068084945
:102450000840064908604FF41F00886028F030FDEE
:1024600000214FF0006025F033F808BD0010024055
:10247000FFFFF6FE0C00FFE8FFFF00F710B501219B
:10248000880729F022FB012808D10121800729F0C3
:1024900019FB012022F010FF00F002F810BD00002F
:1024A0000E490968491C0D4A1160002013E000EB39
:1024B00040010B4A02EB8101496859B100EB400130
:1024C00002EB81014968491E00EB4002044B03EB1B
:1024D00082025160401C0528E9D370472400002087
:1024E0006004002010B5034810F032FE02A02AF06C
:1024F00037FA10BD000000204C6564205441534B56
:102500000000000010B502A02AF02AFA10BD000059
:10251000557064617465205441534B0010B50DF043
:1025200095FE134A116990680CF03CFC1148407804
:1025300020B90F49086803F005F910E00D4840780C
:10254000012804D10A49886803F0FCF807E009482B
:102550004078022803D10649086903F0F3F825F012
:10256000AFFC342801D105F0C1F805F0E3F810BD47
:10257000000400205403002010B50249886803F0CD
:102580002BF910BD0004002010B500240C490D48A3
:102590002AF08CF990B10B482AF0D0F8C4B20A485E
:1025A0000168001D4454001F0068401C0649086073
:1025B00008460068802801D30020086010BD000094
:1025C0000503050000380140BC03002010B52BF0C6
:1025D00007F910BD00BFFEE7490050EAC12018BF4F
:1025E00004204A0D18BF40F0010040F2FF72B2EB28
:1025F000515F08BF40F00200012808BF0520704766
:1026000070B50446002508E02168481C2060087861
:10261000303805EB850100EB41052168087800F0B2
:1026200004F80028F0D1284670BD0146302903DBAC
:10263000392901DC012070470020FCE730380A28E6
:1026400001D20120704700207047000010B54021E2
:10265000074801F0E3FA00221E21064822F03AFE64
:102660000549086002F018FF00200449087010BDF9
:10267000E01F002065550008D0020020CC02002099
:1026800030B50346B1F90040B2F90050AC4202DD6A
:10269000B1F9004001E0B2F900401C80B1F90240FC
:1026A000B2F90250AC4202DDB1F9024001E0B2F9E8
:1026B00002405C80B1F90440B2F90450AC4202DA45
:1026C000B1F9044001E0B2F904409C80B1F9064040
:1026D000B2F90650AC4202DAB1F9064001E0B2F9B3
:1026E0000640DC800120B3F90040B3F90450AC424D
:1026F00005DCB3F90240B3F90650AC4200DD00201E
:1027000030BDF8B504460D4616460027B4F9000062
:10271000B5F90010884212DBB4F90200B5F90210D5
:1027200088420CDBB4F90400B5F90410884206DCD9
:10273000B4F90600B5F90610884200DC01270FB98C
:102740000020F8BD0EB90120FBE72088ADF800009D
:102750006088ADF8020032466946284600F0A7F8C6
:1027600008B90020EDE7A088ADF800006088ADF85A
:10277000020032466946284600F099F808B9002060
:10278000DFE72088ADF80000E088ADF802003246AF
:102790006946284600F08BF808B90020D1E7A088E8
:1027A000ADF80000E088ADF80200324669462846E0
:1027B00000F07DF808B90020C3E70120C1E7024618
:1027C000B2F90000B1F90430984213DCB2F9040008
:1027D000B1F9003098420DDBB2F90200B1F90630D0
:1027E000984207DCB2F90600B1F90230984201DBE9
:1027F000012070470020FCE7F8B504460D46164658
:10280000B4F90400B5F90010884211DBB4F90600F0
:10281000B5F9021088420BDBB4F90000B5F90410D9
:10282000884205DCB4F90200B5F90610884201DDE2
:102830000120F8BD0EB90020FBE72088ADF80000AC
:102840006088ADF8020032466946284600F02FF84D
:1028500008B10020EDE7A088ADF800006088ADF871
:10286000020032466946284600F021F808B10020EF
:10287000DFE72088ADF80000E088ADF802003246BE
:102880006946284600F013F808B10020D1E7A08877
:10289000ADF80000E088ADF80200324669462846EF
:1028A00000F005F808B10020C3E70120C1E72DE9D9
:1028B000FC5F05460E4614464FF0000AB6F90000CC
:1028C000B5F90010884213DBB6F90000B5F9041021
:1028D00088420DDCB6F90200B5F90210884207DB28
:1028E000B6F90200B5F90610884201DC4FF0010A82
:1028F000BAF1000F02D10020BDE8FC9F002C01DCE2
:102900000120F9E7284611F047F9834600EBDB7018
:102910004710284611F0C6F8834600EBDB704FEAFB
:102920006008474501DA384600E0404681464C459C
:1029300000DD4C462888ADF800002888204400B20D
:10294000ADF804006888ADF802006888204400B241
:10295000ADF80600002231466846FFF7A8FF80B1B7
:10296000BDF80400204400B2ADF80400BDF8060034
:10297000204400B2ADF80600314668461FF01EFE46
:10298000BAE7E888001B00B2ADF80200E888ADF8AD
:102990000600002231466846FFF789FF80B1BDF886
:1029A0000400204400B2ADF80400BDF80200001B92
:1029B00000B2ADF80200314668461FF0FFFD9BE70C
:1029C000A888001B00B2ADF80000A888ADF804008C
:1029D000002231466846FFF76AFF80B1BDF800006B
:1029E000001B00B2ADF80000BDF80200001B00B2F1
:1029F000ADF80200314668461FF0E0FD7CE76888CC
:102A0000ADF802006888204400B2ADF8060000224C
:102A100031466846FFF74BFF80B1BDF80000001B50
:102A200000B2ADF80000BDF80600204400B2ADF8D9
:102A30000600314668461FF0C1FD5DE701205BE7F7
:102A400010B5B1F90030B2F90040A34202DAB1F991
:102A5000003001E0B2F900300380B1F90230B2F980
:102A60000240A34202DAB1F9023001E0B2F90230C9
:102A70004380B1F90430B2F90440A34202DDB1F958
:102A8000043001E0B2F904308380B1F90630B2F9C4
:102A90000640A34202DDB1F9063001E0B2F906308A
:102AA000C38010BD2DE9FF41044622F0F5FB054629
:102AB0000020039034B14749E0680860204622F0C6
:102AC00021FD03E013F0B0FC424908604149096868
:102AD00008691FF0D1FC3F480068406920B13D49BA
:102AE000096848691FF0C8FC3A490968C8691FF0BD
:102AF000C3FC38490968086A1FF0BEFC3548006805
:102B0000006940B9002033490968A1F8500100BFAD
:102B100000BFBDE8FF8120F02FF81FF075FF2D48A2
:102B20000068B0F8500100284BD02A4800680068BF
:102B3000007CC0F34000E8B12648006813F0F2FCC6
:102B4000401E06B22348006813F086FC401E07B200
:102B50003B460022114601A8009611F05BF801A83F
:102B60001C4909680968896B48601A48006805F0C3
:102B70007DFE00BF4FF480711648006830301AF0B7
:102B800016FC20211348006800F598701AF00FFC1D
:102B9000002010490968A1F85001284622F06EFB78
:102BA00003900C4800680068406A50B10949096800
:102BB00008680849096809684B6A07490A6803995F
:102BC00098471AF02BF900F03FF800F007F800BF23
:102BD0009FE700000C0200200802002010B500242E
:102BE00016E0C4EBC4000C4951F8200030B1C4EB2E
:102BF000C401094A52F821001AF0C2F9C4EBC40119
:102C0000054A02EB81001C211AF0D1FB601CC4B202
:102C1000042CE6DB10BD0000BC2000200146094A60
:102C200010680BE042688A4202D002688A4204D1EE
:102C3000027E22F00102521C027640690028F1D186
:102C400070470000E00100207047000010B504212B
:102C5000014800F0E3FF10BDD41F002010B51C2177
:102C6000014800F0DBFF10BDEC1F00202DE9FF4FF5
:102C70008BB004469A46199DBAF1000F11D11898ED
:102C8000B0F5807F0DD10020208060800C98401E20
:102C900000B2A0800D98401E00B2E0800FB0BDE8E9
:102CA000F08FB5F900004042189948430121C1EB6B
:102CB000202000B22080B5F9020040421899484314
:102CC0000121C1EB202000B26080B5F900100C9802
:102CD000401A18994843022101EB202000B2A0803D
:102CE000B5F902100D98401A18994843022101EBDA
:102CF000202000B2E080BAF1000F14D1208829888A
:102D0000084400B2208060886988084400B260806E
:102D1000A0882988084400B2A080E0886988084417
:102D200000B2E080BAE70A209AFBF0F00A900A9815
:102D3000401C09900A9800EB8000AAEB400B0A980F
:102D400000B222F057FD0890099800B222F052FD1F
:102D500007900A985A3000B222F04CFD069009986C
:102D60005A3000B222F046FD0590CBF10A010898D6
:102D70004143079800FB0B100A2190FBF1F6CBF1C1
:102D80000A0106984143059800FB0B100A2190FBAD
:102D9000F1F776117F11B4F90080B4F9029007FBC6
:102DA00008F006FB1900298801EBA02000B2ADF85D
:102DB000100006FB08F007FB0900698801EBA02062
:102DC00000B2ADF81200B4F90480B4F9029007FB28
:102DD00008F006FB1900298801EBA02000B2ADF82D
:102DE0000C0006FB08F007FB0900698801EBA02036
:102DF00000B2ADF80E00B4F90080B4F9069007FBFC
:102E000008F006FB1900298801EBA02000B2ADF8FC
:102E1000080006FB08F007FB0900698801EBA02009
:102E200000B2ADF80A00B4F90480B4F9069007FBCB
:102E300008F006FB1900298801EBA02000B2ADF8CC
:102E4000040006FB08F007FB0900698801EBA020DD
:102E500000B2ADF80600BDF90800BDF910108842B7
:102E600002DABDF9080001E0BDF91000BDF9041057
:102E7000BDF90C20914202DABDF9041001E0BDF960
:102E80000C1088420BDABDF90800BDF91010884219
:102E900002DABDF908000DE0BDF910000AE0BDF945
:102EA0000400BDF90C10884202DABDF9040001E00B
:102EB000BDF90C002080BDF90800BDF91010884252
:102EC00002DDBDF9080001E0BDF91000BDF90410F4
:102ED000BDF90C20914202DDBDF9041001E0BDF9FD
:102EE0000C1088420BDDBDF90800BDF910108842B6
:102EF00002DDBDF908000DE0BDF910000AE0BDF9E2
:102F00000400BDF90C10884202DDBDF9040001E0A7
:102F1000BDF90C00A080BDF90A00BDF9121088426D
:102F200002DABDF90A0001E0BDF91200BDF9061090
:102F3000BDF90E20914202DABDF9061001E0BDF99B
:102F40000E1088420BDABDF90A00BDF91210884252
:102F500002DABDF90A000DE0BDF912000AE0BDF980
:102F60000600BDF90E10884202DABDF9060001E044
:102F7000BDF90E006080BDF90A00BDF9121088424B
:102F800002DDBDF90A0001E0BDF91200BDF906102D
:102F9000BDF90E20914202DDBDF9061001E0BDF938
:102FA0000E1088420BDDBDF90A00BDF912108842EF
:102FB00002DDBDF90A000DE0BDF912000AE0BDF91D
:102FC0000600BDF90E10884202DDBDF9060001E0E1
:102FD000BDF90E00E08000BF60E62DE9F74F86B036
:102FE000044620680590B4F908100798A0EB010882
:102FF000B4F90A100898A0EB0109E089B0F5807FC8
:1030000013D1206B00FB08F0E16A01FB1901606A33
:1030100000EBA10BE06A00FB08F0216B01FB09014A
:10302000A06A00EBA10004902FE0A08980B9A06BFA
:1030300000FB08F04FEA6018A06B00FB09F04FEAB4
:103040006019606A00EB080BA06A484404901CE019
:10305000A06B00FB08F04FEA6018A06B00FB09F0C2
:103060004FEA6019206B00FB08F0E16A01FB1901CF
:10307000606A00EBA12BE06A00FB08F0216B01FB0A
:103080000901A06A00EBA12004904FEA2B260498C6
:103090000712B4F90400B04203DC002009B0BDE817
:1030A000F08F002E01DA0020F8E7B4F90600B842EC
:1030B00001DC0020F2E7002F01DA0020EEE73420E7
:1030C000005DC0F3800050B33420005DC0F34000C9
:1030D00078B90225B4F904007843684306FB050A71
:1030E000059800EB0A012A4604F114001AF00DF9C4
:1030F0002CE00325B4F904007843684306FB050A75
:103100006A1E059800EB0A0104F114001AF0FDF89C
:103110000AEB0500401E0599095CA17516E04FF009
:10312000000A0025208A03463AB231B2019004F128
:10313000180017F03FFB0290BDF80800A0823AB2D9
:1031400031B204F1180017F095FAA0753420005D33
:1031500000F00100B0B14FF47F40002100F47C4248
:1031600041EA5211C0F3C40211430191BDF8042099
:1031700011460291A08ABDF80810884201D10020B2
:103180008CE700BFE07C08B9012087E70FFA8BF1DC
:10319000A187049801B2E18731B24020015339B2CE
:1031A00042200153C4F844A084F84850204600F05F
:1031B00003F80390039871E72DE9F04F8DB00446B2
:1031C000D4F8009094F83C000C9094F83E000B90DA
:1031D0000C9870280BDA4FF0FF35B4F94000284402
:1031E000002800DA00250C988030C7B213E00C9854
:1031F00090280EDD0125B4F940002844B4F90410EC
:10320000884200DB00250C98C0F1FF008030C7B277
:1032100001E00025FF270B9870280CDA4FF0FF36ED
:10322000B4F942003044002800DA00260B988030C0
:1032300000F0FF0815E00B9890280FDD0126B4F987
:1032400042003044B4F90610884200DB00260B9897
:10325000C0F1FF00803000F0FF0802E000264FF0D0
:10326000FF08A08A0A90A07D069000200590049097
:1032700003903420005DC0F3800000285BD094F8F8
:103280004800626C00FB052000EB0901022209A83E
:103290001AF03BF8B4F9040094F848205043626CEB
:1032A00000FB062000EB0901022208A81AF02DF805
:1032B000B4F9040094F848205043626C00FB0622E5
:1032C00094F8480000FB052000EB0901022207A842
:1032D0001AF01BF83420005DC0F3400000287ED0B7
:1032E00094F84800616C00FB05110844401E19F871
:1032F00000000590B4F9040094F848104843616C4C
:1033000000FB061194F848000844401E19F800001C
:103310000490B4F9040094F848104843616C00FB31
:10332000061194F8480000FB05110844401E19F8E6
:103330000000039053E0208A0090B4F9422040201E
:10334000005B284401B204F11800009B17F032FA28
:103350000990208A00904220005B304402B2B4F908
:10336000401004F11800009B17F024FA0890208AFE
:1033700000904220005B304402B24020005B2844B1
:1033800001B204F11800009B17F014FA07903420E2
:10339000005DC0F3400010B3B4F942204020005B50
:1033A000284401B204F1180017F064F90590422096
:1033B000005B304402B2B4F9401004F1180017F079
:1033C00059F904904220005B304402B24020005B77
:1033D000284401B204F1180017F04CF90390BA46E2
:1033E000BB463420005DC0F34000E0B3069878434C
:1033F000C7F1FF0C059B03FB0C00C0F307210498E9
:103400007843C7F1FF0C039B03FB0C00C0F30722BA
:1034100001FB08F0C8F1FF0302FB0300030AA375D8
:10342000022905DC022A03DC00200DB0BDE8F08F84
:10343000022901DC4FF00008022A01DC4FF0FF08EE
:103440000698022801DC4FF0000A0598022801DCEA
:103450004FF0FF0A0498022801DC4FF0000B03989C
:10346000022803DC00E002E04FF0FF0B03E0BA4665
:10347000BB46FF21A175BAF1000F02D10998029055
:103480000BE0BAF1FF0F02D10A98029005E0524614
:10349000DDE9091012F046FD0290BBF1000F02D1E8
:1034A000079801900BE0BBF1FF0F02D10898019043
:1034B00005E05A46DDE9071012F034FD0190B8F13D
:1034C000000F03D1BDF80400A0820FE0B8F1FF0F98
:1034D00003D1BDF80800A08208E04246DDE90110F2
:1034E00012F020FD0090BDF80000A08201209CE7B2
:1034F0002DE9F05F0446B4F9080001026162B4F9F5
:103500000A000102A162B4F90C000A2190FBF1F556
:103510006F1CB4F90C0005EB8501A0EB4106684275
:1035200000B222F067F98046784200B222F062F9D8
:103530008146C5F15A0000B222F05CF98246C7F11B
:103540005A0000B222F056F98346C6F10A0000FB89
:1035500008F009FB06000A2190FBF1F1E162C6F1D7
:103560000A0000FB0AF00BFB06000A2190FBF1F1B8
:103570002163E06A4111E162206B41112163A07C6B
:1035800017F027FA3421095D60F30001342001555A
:10359000A07C17F001FA3421095D60F34101342069
:1035A0000155A07C042805D0A07C052802D0A07C71
:1035B000062807D13420005D20F00400001D3421CE
:1035C000085505E03420005D20F004013420015549
:1035D00021682162A06920F0E000A061A17CA069BF
:1035E00061F30400A061A188A06961F39420A06147
:1035F000E188A06961F35F50A061E08900EBD071C0
:10360000491001F5001191FBF0F2A263FF21A175B1
:10361000208AA082BDE8F09F2DE9F74305461646B3
:103620000024134C21F038FE8046334629462046BC
:10363000019A17F037FE07465FB900BF00BF2C2183
:10364000204619F0B4FE4FF00040A0620020BDE813
:10365000FE830020A062E06918B9404621F00EFE0A
:10366000E061E06908B90120E0612046EFE7000071
:103670001020002010B51421114800F0CFFA17F0E7
:10368000C3FD044600BF1CB900BF00BF00BFFEE77A
:1036900000BF14B900BF00BF10BD0A49204617F093
:1036A0009BFE0949204617F099FE0849204617F06D
:1036B00097FE0749204617F08DFE00BFECE700009B
:1036C000F81F002025AA0108F9AE010815B101086C
:1036D000EDA9010870B504460D461021284619F0E1
:1036E00066FE20680078012804D1208A2880608A3C
:1036F00068800CE020680078022802D1E0686860E9
:1037000005E020680078042801D10A20686020685C
:10371000406820B1206829464268904701E000BF18
:1037200000BF70BD2DE9FE430446A66AEEB9A18A2A
:10373000208A084401B2A182E18A608A084401B269
:10374000E18220460BF019FF06460EB9BDE8FE8364
:1037500020460FF027F800220921304616F000F924
:103760006078C0F3400000B1F0E7208A10B9608AA9
:10377000002870D000200290019094F83C0000F0E6
:103780000F00032812D130461BF092FB074630464B
:103790001BF016FB804603200090B4F910103B4646
:1037A000424630460BF00AFA029012E030461BF017
:1037B00001FC074630461BF099FA80460C20009029
:1037C000B4F9121043463A4630460BF0F7F901902F
:1037D00000BF30461BF0EAFA054605F0010028B9A3
:1037E000BDF90800002801DD0020029005F002006C
:1037F00028B9BDF90800002801DA0020029005F080
:10380000040028B9BDF90400002801DD0020019062
:1038100005F0080028B9BDF90400002801DA0020ED
:10382000019001AA02A9204625F038F90023BDF92C
:103830000420BDF9081030461EF0CEF8A08ABDF86D
:103840000810084401B2A182E08ABDF804100844BF
:1038500001B2E18200BF00BF78E72DE9F84F0446CE
:10386000D4F828B0BBF1000F01D1BDE8F88F94F86F
:103870003C0000F00F0000B9F7E717F013FE064612
:103880003068477E402158461CF067FE10B9002181
:103890006183218358461BF079FB804658461BF014
:1038A0007FFB054694F83C0000F00F000C2843D144
:1038B000002121831DBBB4F91A00C7F164014843FC
:1038C000642190FBF1F001B2618358461BF00EFABF
:1038D000814658461BF06EFB82460C200090B4F9DE
:1038E0001A104B46524658460BF068F96083B4F9FB
:1038F0001A200023194658461EF06EF869E020464B
:1039000025F023F90090002161836A46204625F0C6
:10391000C5F8BDF9003041F6FF72514258460BF030
:10392000D5FF8146BDF80000484402B201230021C2
:1039300058461EF051F84CE094F83C0000F00F009F
:10394000032846D100216183B8F1000F23D1B4F9D7
:103950001800C7F164014843642190FBF1F001B203
:10396000218358461BF02CFA814658461BF0A0FADA
:10397000824603200090B4F9181053464A46584630
:103980000BF01CF92083B4F9181000231A4658468E
:103990001EF022F81DE0204625F0BCF80090002122
:1039A000218300226946204625F078F8BDF90030D1
:1039B00041F6FF72514258460BF0EEFE8146BDF8CB
:1039C0000000484401B20123002258461EF004F8CA
:1039D00000BF208B002860D1608B00285DD11DBB0B
:1039E00058461BF0E7FA814658461BF07FF982469D
:1039F000B9F1000F02DCBAF1000F14DDB9F1000FCC
:103A000006DA01234A46002158461DF0E5FF0AE088
:103A1000BAF1000F07DA0123CAF1000002B2002157
:103A200058461DF0D9FF00BFB8F1000F23D158460A
:103A30001BF0C6F9814658461BF03AFA8246B9F1A6
:103A4000000F02DCBAF1000F14DDB9F1000F06DA45
:103A500001230022494658461DF0BEFF0AE0BAF194
:103A6000000F07DA01230022CAF1000001B2584614
:103A70001DF0B2FF00BF32460A21584615F070FF14
:103A80006078C0F3400000B1EFE694F83C0020F00D
:103A90000F0184F83C100021A16200BFE5E62DE98A
:103AA000FF4104460F4614B912F0BEFC04460CB99F
:103AB000BDE8FF811FB90020A4F85001F8E70020FD
:103AC000ADF80800ADF80A00204612F0C5FC401E13
:103AD00000B2ADF80C00204612F024FD401E00B2EA
:103AE000ADF80E0002AA39466846FEF7C9FD064643
:103AF00006B9DDE72068007CC0F3400060B10298A1
:103B00002063039860630120A4F85001606810B13D
:103B1000606821F003FDCBE72068806918B1206858
:103B200069468269904700250BE004F1300000EB04
:103B3000C50100226846FEF7E4FD00B1B8E7681C45
:103B400085B2B4F85001A842EFDCB4F85001202847
:103B500009DAB4F8502104F1300101EBC2006946E2
:103B60000FF020FF0BE00020A4F85001B4F8502122
:103B700004F1300101EBC20002A90FF013FFB4F809
:103B80005001401CA4F85001606810B1606821F039
:103B9000C5FC00BF8CE770B50546284600F013F859
:103BA000044600260CE02146284600F024F806468C
:103BB0002146284600F086F8204619F0E1F93446FF
:103BC000002CF0D170BD014609B90020704748684B
:103BD000FCE770B5064600243046FFF7F4FF0546C3
:103BE00005E0641C2946304600F005F80546002D26
:103BF000F7D1204670BD02460B461068001D0344F5
:103C00001868704702460B461068034418687047EE
:103C1000014609B9002070478868FCE7002242602D
:103C20008260CA1C22F003010160704770B504462F
:103C3000216801F1080019F0D5F80546A5B1002268
:103C40002946204623F018F829462046626823F0CA
:103C500005F8606820B12A462046616823F00CF818
:103C60006560A06800B9A560284670BD70B50446BF
:103C7000216801F1080019F0B5F80546A5B1002248
:103C80002946204622F0EAFF29462046A26822F073
:103C9000F3FFA06820B12A462046A16822F0DEFF8B
:103CA000A560606800B96560284670BD014609B925
:103CB00001207047486818B9886808B90120F8E7FA
:103CC0000020F6E72DE9F04104460D460CB9BDE8A9
:103CD000F0812046FFF777FFA8420FD12946204602
:103CE000FFF789FF6060606810B90020A0602FE0D6
:103CF00000222046616822F0BFFF29E02046FFF73E
:103D000087FFA8420FD129462046FFF77BFFA0601E
:103D1000A06810B9002060601AE000222046A16867
:103D200022F09CFF14E029462046FFF76BFF064671
:103D300029462046FFF75FFF07463A4631462046B0
:103D400022F08CFF32463946204622F095FF00BF14
:103D500000BFBCE710B504462068806818B1206831
:103D60002146826890472068006828B12068006872
:103D700020602046FFF7EEFF10BD0146886818B1AD
:103D80008868B0F9160070470020FCE72DE9F04F75
:103D900093B005468B4691469A461C9E688C20F04F
:103DA0000400001D6884A5F82090328959462846F1
:103DB0001CF099F91290A5F820A03289594628469E
:103DC0001CF091F91190688C20F004006884DDE902
:103DD000111088420CD1DDE91110884208D1BDF8DC
:103DE0004800BDF84410884202D113B0BDE8F08FFE
:103DF000A5F820903289594628461CF074F9129093
:103E0000A5F820A0594628460DF080F91090318978
:103E1000109A1068129A20F076F93089602833D110
:103E200047F6FF711298884202D0119888422BD130
:103E300028461CF058FB0F9000EBD0704710284626
:103E40001CF051FB0F9000EBD0704FEA600847F672
:103E5000FF711298884208D1781C08F1010188424C
:103E600000DA01E008F10100129047F6FF711198A5
:103E7000884208D1781C08F10101884200DA01E08B
:103E800008F10100119000BF2448FFF7CFFE04465F
:103E900000BF1CB900BF00BF00BFFEE700BF04B9F0
:103EA000A3E71298E06011982061ACB325603089D7
:103EB000A080C4F808B068460FF068FC2146684648
:103EC0000FF0F4FC164968460FF0C2FC154802904A
:103ED00000BF154968460FF0C7FCFF220021684665
:103EE0000FF0D4FC318868460FF0C6FC7188684634
:103EF0000FF0A9FCF068069000BF6846002190F81A
:103F00003E2061F3000280F83E2000BF306905903A
:103F100068460FF0E3FC00BF00BF66E70420002006
:103F20007DBC020829BF020859BE020810B5142141
:103F30000148FFF773FE10BD042000202DE9FE4F5D
:103F400004460F4690464FF0000900256BE1E068FB
:103F500000EBC5004068C0F3406000B162E1E16879
:103F600001EBC501496821F07F401EF082FA064648
:103F700026EA070008B9012000E00020029026EAA6
:103F8000080008B9012000E000200190DDE90101EE
:103F9000814272D0E06850F835A04FF0000B6A46BD
:103FA00041F6100150461FF059FD10B14FF0010BC2
:103FB000A9E06A4641F6110150461FF04FFD10B1CD
:103FC0004FF0010B9FE06A4641F6120150461FF088
:103FD00045FD10B14FF0010B95E06A4641F6130123
:103FE00050461FF03BFD10B14FF0010B8BE06A46CD
:103FF00041F6150150461FF031FD10B14FF0010B95
:1040000081E06A4641F6140150461FF027FD10B1C9
:104010004FF0010B77E06A4641F2690150461FF00C
:104020001DFD10B14FF0010B6DE06A4643F20C012B
:1040300050461FF013FD10B14FF0010B63E06A46CC
:1040400043F20D0150461FF009FD10B14FF0010B76
:1040500059E06A4641F2010150461FF0FFFC10B1E1
:104060004FF0010B4FE06A4641F2040150461FF049
:10407000F5FC18B14FF0010B45E0D2E06A4641F281
:10408000020150461FF0EAFC10B14FF0010B3AE07C
:104090006A4641F2030150461FF0E0FC10B14FF0B8
:1040A000010B30E06A4641F2050150461FF0D6FC94
:1040B00010B14FF0010B26E06A4641F2060150466E
:1040C0001FF0CCFC10B14FF0010B1CE06A4641F22E
:1040D000320150461FF0C2FC10B14FF0010B12E04C
:1040E0006A4643F60F0150461FF0B8FC10B14FF07E
:1040F000010B08E06A4643F60E0150461FF0AEFC85
:1041000008B14FF0010BBBF1000F02D00320BDE856
:10411000FE8F6A4640F60A0150461FF09FFC10B120
:104120004FF002097CE06A4640F60B0150461FF052
:1041300095FC10B14FF0020972E06A4643F60F0198
:1041400050461FF08BFC10B14FF0020968E06A4640
:1041500043F60E0150461FF081FC10B14FF00209EA
:104160005EE06A4640F63C0150461FF077FC10B115
:104170004FF0020954E06A4640F63D0150461FF0F8
:104180006DFC10B14FF002094AE06A4640F63A0170
:1041900050461FF063FC10B14FF0020940E06A4640
:1041A0004FF4046150461FF059FC10B14FF0020962
:1041B00036E06A4640F6450150461FF04FFC10B10C
:1041C0004FF002092CE06A4640F6410150461FF0CC
:1041D00045FC10B14FF0020922E06A4640F6420168
:1041E00050461FF03BFC10B14FF0020918E06A4640
:1041F00040F6430150461FF031FC10B14FF0020968
:104200000EE06A4640F6490150461FF027FC10B107
:104210004FF0020904E0B9F1000F01D14FF001099C
:1042200000BF00BF6D1C608CC0F3C500A8423FF604
:104230008EAE48466BE700000148006870470000FA
:104240000C02002070470146C1F30412072A00DD6A
:104250000722D0B27047000010B518210348FFF7BD
:10426000DDFC012021F072F810BD0000B01F00201D
:104270002DE9F04105460F4616460DB9BDE8F0811F
:104280002846FCF769FA8046394628460A4A1268E9
:1042900090470746E8193146074A12689047064694
:1042A0003C4603E0A019285C2855641CA8EB0600D6
:1042B000A042F7D200BFE1E71C0300202DE9F04146
:1042C00006460C4617461D4629463046084A1268DF
:1042D00090472060206830B1296888190021044A7D
:1042E0001268904700E000203860BDE8F0810000CF
:1042F000140300202DE9F04F87B004460F46924684
:104300009846DDE910560DB1002028801CB9002028
:1043100007B0BDE8F08F207808B90020F8E70FB9A2
:104320000020F5E74FF0000906F0020010B906F092
:10433000040098B1002000E0401C215C0A2905D04F
:10434000215C0D2902D0215C0029F5D1215C01B14D
:10435000401C15B14FF0FF312980D9E706F002006B
:1043600008B141F6FF7800200690059038E0002063
:104370000490059808B9012000E0002006A904AACD
:10438000CDE90062CDE90210059960184346524616
:10439000394621F067FA83460498A8EB00000FFA2B
:1043A00080F8049848440FFA80F9BBF1000F00D15F
:1043B0001CE005985844059020780A2802D02078FF
:1043C0000D2800D112E00598205C0A2803D005983A
:1043D000205C0D2803D10598401C059006E000BF25
:1043E0000598205C10B1B8F1000FC0DC00BF059843
:1043F00070B905A92046094A12689047834635B12D
:1044000000225946384615F0EAFB0FFA80F900BF42
:104410000DB1A5F8009005987AE70000140300207C
:104420002DE9F04706468846174606B10FB9BDE8A4
:10443000F0873046FCF790F981463846FCF78CF956
:10444000044604B9F3E704EB090A414630460B4A37
:10445000126890478046554603E0281B305C705533
:104460006D1E08EB0400A842F7D906EB08002246AF
:10447000394618F056FF00BFD9E700001C030020A2
:10448000024600200FA31B788B4211D113781BB971
:104490000123137001200BE01378012B02D10023BC
:1044A000137005E01378022B02D100231370012052
:1044B0001378012B04D1202901D10223137001208C
:1044C000704700002300000073B582B006460398D1
:1044D0000190324600210846019B21F0DFFC054691
:1044E000002001900024681C18F07CFC044600BFEA
:1044F0001CB900BF00BF00BFFEE700BF14B9002019
:1045000004B070BD002060553246691C2046039BF4
:1045100021F0C4FC2046F3E72DE9F04781460E4622
:1045200014461F46DDF820A035461BE0600800FB5E
:10453000075529464846D047B0F1000809DD04F088
:10454000010080F00100C0EB5404E819054606465E
:1045500008E0B8F1000F02DA6408354602E02846A8
:10456000BDE8F087002CE1D10020F9E72DE9F0410A
:1045700005460E4604273188781E814202DD002060
:10458000BDE8F08134880DE0621EC2EBC20205EB8B
:104590008201C4EBC40205EB82001C22FCF740F947
:1045A000601E84B2002CEFDC1C212846FCF78CF93D
:1045B0000120E5E701460522501E094B1B88984261
:1045C00001DA002070470748054B1B8840F823108C
:1045D00003480088401C024B18800120F2E70000CD
:1045E00048030020F07100202DE9FF4F85B083467D
:1045F000DDE9158ADDE91349DDE91775129E05F03D
:104600000200F8B94FB105F0010030B1B9F1000F67
:1046100002D105F00C0000B17F1E03E030222046DD
:10462000641C3254544501D2202CF7D303E03022CD
:104630002046641C325405F0010018B1BC4201D27E
:10464000202CF4D305F01000B0B305F4806050B90D
:104650004CB1544501D0BC4205D1641E1CB1B8F127
:10466000100F00D1641EB8F1100F09D105F0200021
:1046700030B9202C04D278222046641C325415E034
:10468000B8F1100F09D105F0200030B1202C04D270
:1046900058222046641C325408E0B8F1020F05D1BC
:1046A000202C03D262222046641C3254202C03D2D8
:1046B00030222046641C3254202C16D2B9F1000F4F
:1046C00004D02D222046641C32540EE005F0040074
:1046D00020B12B222046641C325406E005F008006D
:1046E00018B120222046641C3254CDE90275CDE970
:1046F0000064584606A90EC900F0A2F809B0BDE84A
:10470000F08F2DE9FF4F8FB08046DDE91FABDDE96B
:104710001D96219D1C9C00270CB925F0100505F461
:10472000806000B1E4B100BFB4FBF6F106FB1141BB
:10473000C8B20A2802DA00F1300107E005F02001D2
:1047400009B1412100E0612101440A39CBB2394667
:104750007F1C07AA5354B4FBF6F40CB1202FE3D30B
:1047600007A8CDE904AB8DE8810203960695404683
:1047700010A90EC9FFF738FF13B0BDE8F08F2DE97F
:10478000FF4F8FB0DDE9217BDDF89080209EDDE9D1
:104790001C454FF00009002184EA010069400843EC
:1047A00001D128F0100808F4806028B1002184EAC3
:1047B0000100694008432DD000BF32463B462046E9
:1047C0002946FBF799FD02F0FF0ABAF10A0F02DA57
:1047D0000AF1300007E008F0200008B1412000E0B5
:1047E000612050440A38C2B2484609F1010907A9BC
:1047F0000A5432463B4620462946FBF77DFD0446D7
:104800000D46002184EA01006940084302D0B9F155
:10481000200FD2D32398CDE9036BCDE9050807A972
:104820001E98CDE9001902900FA80FC8FFF7DCFE13
:1048300013B0BDE8F08F9A4200D288547047704799
:104840002DE9FF5F05461446DDE90EA6DDE9108778
:10485000A34607F0020078B907F0010060B9B1463D
:1048600007E02246641C2020039B0199A84709F118
:104870000109C145F5D300BF08E02246641C711E42
:104880000E461AF80100039B0199A847002EF4D1A7
:1048900007F0020050B105E02246641C2020039B73
:1048A0000199A847A4EB0B004045F5D3204604B07E
:1048B000BDE8F09F7FB505460C464FF4E06023F05D
:1048C0002BFA4FF0804027F015F8681E80B2ADF843
:1048D00000000020ADF80200ADF804000294ADF82D
:1048E0000C008DF80E0069464FF0804027F076F8F6
:1048F000012211461C2022F08BFD0121880727F0A0
:10490000DDF84FF0804027F063F87FBD2DE9FF4FC1
:104910008BB0074600250C9800B9FA4FEAE20E98D2
:10492000007825280AD02A466D1C0E990878DDE902
:104930000C13B8470E98401C0E90DBE20E98401CFA
:104940000E90002400BF0E9800782B2819D004DCAC
:1049500020281ED023282CD123E02D2809D0302850
:1049600027D144F001040E98401C0E9001200A90BB
:1049700022E044F002040E98401C0E9001200A90A0
:104980001AE044F004040E98401C0E9001200A9096
:1049900012E044F008040E98401C0E9001200A908A
:1049A0000AE044F010040E98401C0E9001200A907A
:1049B00002E000200A9000BF00BF0A980028C2D180
:1049C00080460E990878FDF730FE20B10EA8FDF75D
:1049D00017FE804612E00E9800782A280ED118990A
:1049E00001C91891002804DA44F00204C0F100085B
:1049F00000E080460E99491C0E9100BF4FF000095F
:104A00000E9800782E281FD144F480640E98401C24
:104A10000E900E990878FDF708FE20B10EA8FDF75C
:104A2000EFFD814610E00E9800782A280CD11899E5
:104A300001C91891002801DD014600E000218946E6
:104A40000E99491C0E9100BF0E9800786C280AD070
:104A500004DC682816D06A2835D128E0742820D0D4
:104A60007A2830D129E044F480740E98401C0E90CE
:104A70000E9800786C2804D144F400740E98401C01
:104A80000E9021E044F080040E98401C0E900E9889
:104A90000078682804D144F040040E98401C0E9021
:104AA00012E044F480740E98401C0E900CE044F424
:104AB00000740E98401C0E9006E044F480740E982A
:104AC000401C0E9000E000BF00BF0E9800786928DF
:104AD0001DD00EDC622821D006DC25287ED050288F
:104AE0001AD058287BD115E0632879D06428F9D1F1
:104AF0000CE0732875D004DC6F280ED07028F1D13B
:104B000009E0752804D07828ECD102E000BF00BF8E
:104B100000BF00BF00BF00BF00BF00BF0E980078FD
:104B2000782803D00E980078582801D1102623E069
:104B30000E980078702803D00E98007850280CD179
:104B4000102644F0100444F480740E9840785628DF
:104B500012D10E98401C0E900EE00E9800786F282F
:104B600001D1082608E00E980078622801D10226BB
:104B700002E00A2624F010040E980078582803D08A
:104B80000E980078502801D144F020040E98007847
:104B9000692805D00E980078642801D024F00C0410
:104BA00004F4806008B124F001040E9800786928AC
:104BB00003D00E98007864287CD104F40070B8B358
:104BC0001898C01D20F007001890D0E900AB189A83
:104BD000083218920020CDE9069803E073E17CE1E9
:104BE000F2E01CE1CDE904600894BAEB00017BEB34
:104BF000000001DA012000E00020002102900846B8
:104C0000B1EB0A0170EB0B0002DA5046594605E0A1
:104C100000200146B0EB0A0061EB0B01CDE9000179
:104C20002A463846DDE90C13FFF7A9FD0546C7E023
:104C3000FFE704F48070D0B1189850F804AB1890D6
:104C40004FEADA70CDE9039802960594BAF1000FA5
:104C500001DD514601E0CAF10001CDE900102A460C
:104C60003846DDE90C13FFF74CFD0546A8E004F0DB
:104C7000400028B1189810F8041B1890C8B20DE035
:104C800004F0800028B1189830F8041B189008B27E
:104C900004E0189800681899091D189182464FEA97
:104CA000DA70CDE9039802960594BAF1000F02DD9F
:104CB000514602E00BE0CAF10001CDE900102A469E
:104CC0003846DDE90C13FFF71CFD054678E00E9829
:104CD0000078562818D1189850F804AB1890DAF8D4
:104CE00004000068099009980090DAF800300D98E7
:104CF000421B0C9841193846FFF708FE0544002076
:104D000009905DE03F48000804F40070D0B11898A5
:104D1000C01D20F00700CDE90698089418900020E7
:104D2000CDE904600290189903C9189A08321892C4
:104D3000CDE900012A463846DDE90C13FFF71FFDD7
:104D400005463DE004F4807098B10022CDE9039857
:104D500002960594189800681899091DCDE900027B
:104D600018912A463846DDE90C13FFF7CAFC0546C0
:104D700026E004F0400028B1189810F8041B1890A1
:104D8000C8B20DE004F0800028B1189830F8041B78
:104D9000189088B204E0189800681899091D1891B5
:104DA00082460020CDE900A0CDE903980296059443
:104DB0002A463846DDE90C13FFF7A3FC054600BF81
:104DC0000E98401C0E9093E0012604F0020050B9AA
:104DD00005E02A466D1C2020DDE90C13B84730465B
:104DE000761C4045F5D3189911F8043BD8B22A46F1
:104DF0006D1C1891DDE90C13B84704F0020050B1A6
:104E000005E02A466D1C2020DDE90C13B84730462A
:104E1000761C4045F5D30E98401C0E9068E018981B
:104E200050F804AB18905046B9F1000F01D0494634
:104E300001E04FF0FF310A46014600E0491C0B78C3
:104E40001BB1131EA2F10102F8D10E1A04F4806006
:104E500028B14E4501D2304600E04846064604F0EF
:104E6000020050B905E02A466D1C2020DDE90C1334
:104E7000B8473046761C4045F5D306E01AF8010BDA
:104E80002A466D1CDDE90C13B8479AF8000040B1C2
:104E900004F480600028F1D0B9F10000A9F1010903
:104EA000ECD104F0020050B105E02A466D1C202030
:104EB000DDE90C13B8473046761C4045F5D30E9813
:104EC000401C0E9014E02A466D1C2520DDE90C13D1
:104ED000B8470E98401C0E900AE02A466D1C0E99A9
:104EE0000878DDE90C13B8470E98401C0E9000BFFF
:104EF00000BF00BF0E98007800287FF410AD0D9819
:104F0000854201D2284601E00D98401E024600204D
:104F1000DDE90C13B84728460FB0BDE8F08F00005C
:104F200038B504461A481EF05AFF19481EF016FEFE
:104F3000002117481FF081F9164810F007FF0146BD
:104F4000009013481EF06BFF992111481EF08CFF52
:104F500000210F481EF0BDFF0E4810F0F7FE01467D
:104F600000900B481EF08AFF992109481EF093FF1C
:104F70006FF07F4010F0EAFE0146009004481FF0F9
:104F8000B6F900220249204618F016FB38BD000091
:104F9000247300202229260070B50646AA224FF469
:104FA000A07130461DF008F8304619F09BF8044611
:104FB00020461CF0E5FCAA224FF4A07120461CF00C
:104FC000FBFF254600231A460921284618F055FB09
:104FD00000BF3046FFF7A4FF2046FFF7A1FF2046A1
:104FE00026F0BAFD204625F06FFF20460DF00EFB9F
:104FF0000148046070BD000020730020816841F00A
:105000000801816000BF816801F008010029FAD120
:10501000816841F00401816000BF816801F00401F2
:105020000029FAD1704730B5012902D002291AD1DE
:105030000CE0C36A23F47003C362C36A541E4FF4C6
:10504000700505EA04542343C3620DE0836B23F427
:1050500040138363836B541E4FF4401505EA0454D8
:105060002343836300E000BF00BF30BD21B18268ED
:1050700042F40062826003E0826822F4006282608F
:105080007047816801F0010119B9816841F001019F
:105090008160704772B101F001031BB1836843F472
:1050A0008013836001F0020393B1836843F40043EB
:1050B00083600DE001F001031BB1836823F48013CA
:1050C000836001F002031BB1836823F40043836013
:1050D0007047012902D0022910D107E0836823F428
:1050E0006023836083681343836008E0836823F44C
:1050F000E043836083681343836000E000BF00BF28
:105100007047F0B50C46876BC7F30156856B371BAC
:1051100007EB8707C7F10F0C1F2707FA0CF7BD43F2
:10512000371B07EB8707C7F10F0702FA07F73D4365
:1051300085630A2A0DDA016902EB420C072707FA98
:105140000CF7B94302EB420703FA07F73943016151
:1051500012E0122A10DAC168A2F10A0707EB470C25
:10516000072707FA0CF7B943A2F10A0707EB47072D
:1051700003FA07F73943C160F0BD0000054909682B
:1051800021F47021034A116011460968014311603E
:10519000704700000424014001F001021AB1826846
:1051A00042F48002826001F002021AB1826842F485
:1051B000001282607047AAB101F480731BB143688A
:1051C00043F48073436001F480631BB1436843F48C
:1051D0008063436001F00203CBB1836843F00203B4
:1051E000836014E001F480731BB1436823F480737F
:1051F000436001F480631BB1436823F48063436020
:1052000001F002031BB1836823F00203836070473F
:105210000348006840F4000001490860704700003E
:10522000082401402DE9F04104460E46002774B1E0
:105230003146204600F02DF80546B5F5004F05D261
:105240000C2D01D9284600E00C20074600BF384647
:10525000BDE8F081024600BF481E084018B100BFFB
:1052600000BF00BFFEE700BF481E1040101A704785
:1052700010B502464B1E13444C1E23EA040000BF27
:105280004B1E0B401BB100BF00BF00BFFEE700BFBD
:1052900010BD024600BF481E084018B100BF00BF45
:1052A00000BFFEE700BF481E10444B1E98437047E6
:1052B0002DE9F04180460E464446012060860025D7
:1052C00000270DE056F8270025A1FBF74FFB10B192
:1052D000681C85B202E0608E401C6086781C87B234
:1052E00056F8270020B156F8270000780028E9D1A9
:1052F000208EA84201D1BDE8F081A06A20B1A06A49
:1053000017F03EFE0020A062E06A20B1E06A17F0CC
:1053100037FE0020E062E80017F064FDA06200BFE5
:10532000A06A18B900BF00BF00BFFEE700BF680059
:1053300017F058FDE06200BFE06A18B900BF00BF77
:1053400000BFFEE700BFA06A08B1E06A00B900250F
:105350006900E06A18F02BF8258600BFCBE7000053
:105360000A0000002DE9F84F81460E46924699F852
:10537000090000F00700022801D1304600E0504645
:105380008346564501DD304600E05046074603207F
:1053900000EB470020F0030000F1100539480068D9
:1053A00039490968A0EB0108002405EB08003749DA
:1053B0000968884206D233480468606820F00040DB
:1053C00060603AE031480068854221D813E04FF030
:1053D000FF300090002269462D480DF001FD0022AB
:1053E00069462C480DF0FCFC2648006826490968EF
:1053F000A0EB010800BF08EB0500244909688842BA
:10540000E5D820480468606820F00040606014E03F
:10541000284617F0E7FC044600BF1CB900BF00BFD8
:1054200000BFFEE700BF14B90020BDE8F88F606838
:1054300020F0004000F10040606032465946484686
:1054400001F03DFD2060606800F04040401C60605D
:10545000606820F080406060A781A4F80EB06068AA
:10546000C00F20B1204600F11001A16008E00548FE
:1054700000681030A06003480068284401490860B3
:105480002046D2E714020020E4020020100200208F
:105490005DF50008F92F010810B5012007490870D3
:1054A0000748FEF790FB20B90648006820F02AF86C
:1054B00003E00448006820F031F810BDCC02002061
:1054C000E01F0020D002002010B5044694F83E00F2
:1054D000C0F3400050B9A08F002807DDA08F4FF621
:1054E000FF71884202D0A08F401EA087A08FA8B96C
:1054F000606B20B194F83E00C0F3400070B12146CB
:105500001748FEF7DFFBFFF7C7FFE06810B1204642
:10551000E1688847204617F033FD1FE0A06B40424A
:10552000E062606BD0B194F83E10C1F3400111B954
:10553000216B4942E16294F83E104908C94394F84E
:105540003E2061F3410284F83E20E069616AE16136
:105550006062A06A616BA162606300BF10BD000061
:10556000E01F00202DE9F0418046424800681FF00E
:1055700085FE06464048007880F001003E490870EC
:105580003E48FEF720FB04466BE000203C490870D3
:1055900094F83E00C0F3800037490978884253D020
:1055A000354801782C34A07C61F38200A074206817
:1055B0008719A07C2C3CC0F3C00010BBE06A002817
:1055C0001FDC002F1DDB94F83E0000F0010060B9E5
:1055D000206950B12046216988470546E069284482
:1055E000E061606A2844606200BFA06810B1204694
:1055F000A168884794F83E0020F00800083084F83D
:105600003E00E06A3044E062E06A00281BDBD4E937
:105610000A10884201DDA06AE0622046A16988473D
:105620000546206AA84206D02562606818B129465E
:10563000D4E900029047D4E90A10884202DB2046F0
:10564000FFF742FF00BF00BF0D48007820B10B48B4
:10565000FEF7B9FA044604E021460848FEF7CBFA03
:105660000446002C91D11FF017FE02490860BDE8E6
:10567000F0810000C8020020CD020020E01F0020C1
:10568000CC020020F7B582B004460E4614B9049847
:1056900005B0F0BD00BF6322314620461AF023FD5D
:1056A0000190019D00BFBDB12868A8B100BF642270
:1056B000314620461AF017FD01900198C0B2074606
:1056C0004FB13A462B682846049998470190BDF897
:1056D0000400ADF8100000BF0498D9E770B5044687
:1056E0000D46606818B129466068FFF7F7FF20682B
:1056F00018B1294620462268904770BD10B504466F
:1057000000231A460249204617F0C1FE10BD0000D2
:105710003D76020810B5044600231A460249204689
:1057200017F0B5FE10BD0000F176020810B5044672
:1057300000231A460249204617F0A9FE10BD0000BA
:105740002177020838B5054629461B4800F0E1FAE2
:105750001A480078401C1949087000240BE0164ACA
:10576000121D52F82410154A506829F087F9134980
:105770004860601CC4B211480078A042EFDC0F49B9
:10578000087829F0DFFA04460C494868214629F0D8
:10579000E3F90A49886000204860074800F09FFA52
:1057A00040B16946044800F0CEFA04480078401E33
:1057B0000249087038BD000064740020587400204D
:1057C00010B5002002490870024800F098FA10BD98
:1057D000587400206474002038B50446064800F070
:1057E0007EFA18B16946044800F0ADFA2146024835
:1057F00000F08FFA38BD0000B873002070B5044681
:105800000D4600BF204600F03BF818B100BF00BFB6
:1058100000BFFEE700BF284600F050F9001D616898
:1058200008446060204600F03AF8204670BD70B52C
:1058300005460C46284600F041F904F11001884263
:1058400001D3012070BD0020FCE70146A1F1080052
:1058500070477CB505460C46204600F02FF90646F9
:105860006A4601A920F0C4FF21462846DDE900323E
:105870000DF06AF87CBD0146087900F00100704720
:1058800010B50446204600F019F908B9012010BDF2
:105890000020FCE70146087900F00200704770B56F
:1058A0000446204600F097F805462C60284670BD57
:1058B0007CB506460C4600200190009000256CB196
:1058C0006A4601A9204620F0B0FF0198092805DAB0
:1058D0006A4601A9304623F01FFA054685B100BF8C
:1058E000284600F0EBF8A04203D200BF00BF00BF83
:1058F000FEE700BF29463046DDE9003222F064FEB3
:1059000028467CBD70B504462046FFF7C8FF054613
:10591000284600F0BEF8204600F0B6F870BD70B51D
:105920000446204600F057F80546284600F0B6F831
:10593000204600F0BEF870BD70B506460D462846FC
:1059400000F049F8044600BF1CB900BF00BF00BF0B
:10595000FEE700BF2046FFF78EFF90B100BF28464C
:10596000FFF78EFF18B100BF00BF00BFFEE700BF0A
:105970002146304600F076F821462846FFF73EFFE4
:105980000546284670BD70B506460D462846FFF709
:1059900081FFF0B1284600F057F8044600BF1CB95B
:1059A00000BF00BF00BFFEE700BF00BF2046FFF7FB
:1059B00062FF18B900BF00BF00BFFEE700BF21466D
:1059C000304600F04FF829462046FFF717FF0546FE
:1059D00000BF284670BD2DE9F0410446204600F086
:1059E0006DF8061F204600F0B8F80746314621F052
:1059F00022FE054600BF2046FFF742FF18B100BF58
:105A000000BF00BFFEE700BF2846BDE8F0812DE9DA
:105A1000F04106460C461546002794B100BF1DB95B
:105A200000BF00BF00BFFEE700BF2A462146304648
:105A300000F097F82046FFF772FF204600F08DF83F
:105A400007463846BDE8F08110B5044600BF204641
:105A5000FFF720FF18B900BF00BF00BFFEE700BF7F
:105A6000206810BD7CB505460C46204600F026F89F
:105A700006466A4601A920F0BBFE21462846DDE91C
:105A8000003222F0A1FD7CBD416841F0010141607E
:105A90007047416841F0020141607047416821F060
:105AA000020141607047426802F003030B43436008
:105AB0007047416821F00101416070470146486824
:105AC00020F0030070472DE9F04706460C463046AB
:105AD00000F043F88046211F21F0ADFD0746304617
